:10000000000001108D8700000988000009880000A9
:10001000098800000988000009880000000000002D
:10002000000000000000000000000000098800003F
:10003000098800000000000009880000098800000D
:10004000098800000988000009880000098800006C
:10005000098800000988000009880000098800005C
:100060000988000009880000994B000009880000F9
:10007000098800000988000009880000098800003C
:10008000098800000988000009880000098800002C
:10009000098800000988000009880000098800001C
:1000A000098800000988000009880000098800000C
:1000B00009880000098800000988000009880000FC
:1000C00009880000098800000988000009880000EC
:1000D00009880000098800000988000009880000DC
:1000E00009880000098800000988000009880000CC
:1000F00009880000098800000988000009880000BC
:1001000009880000098800000988000009880000AB
:10011000098800000988000009880000098800009B
:10012000098800000988000009880000098800008B
:10013000098800000000000000000000098800009D
:10014000098800000988000009880000D9510000D2
:10015000098800000988000009880000098800005B
:10016000098800000988000009880000098800004B
:10017000098800000988000000000000000000005D
:08018000098800000988000055
:1001880010B5054C237833B9044B13B10448AFF3C9
:1001980000800123237010BD0C0000100000000037
:1001A8000089000008B5034B1BB103490348AFF3AE
:1001B800008008BD00000000100000100089000049
:1001C80010F8012B11F8013B012A28BF9A42F7D0F9
:1001D800D01A7047F8B51546020604460F461E4663
:1001E8003AD4012D04F03F042BD0022D14BF44F45F
:1001F800806144F498611F4B1F4A9A639F601A46B6
:10020800D960536B1905FCD485B11A4A536B13F0A6
:10021800450FFBD05A0707D4DB070BD5012C09D0B3
:100228000C2C07D0292C05D00020F8BD506BC0F34A
:10023800C010F8BD0F4B022D5A69326004D001205E
:10024800F8BD44F48861D6E79A697260DA69B260E9
:100258001B6AF3600120F8BD084A11883720012283
:100268000904FFF7B7FF0028DED033689806B8D432
:10027800DAE700BF002C0140C500C0004C000010A8
:1002880038B503680D460446DB68887898476B885C
:10029800002B14BF0323022384F8623038BD00BF4B
:1002A80070B5044616460D46A9B10B1F022B09D995
:1002B80004EB85035B6913B3324629462046BDE843
:1002C8007040184702F0070300EB83035B6B002BB9
:1002D800EED09847ECE7036884F86310022284F8AC
:1002E800611080F862201B6990F8602008469847E2
:1002F8002368034ADB68626328469847D8E770BDDD
:1003080021120000034A136823F4FE6343EA001035
:1003180010607047000800504FF0A04330B49C6A4A
:1003280004EB1444A4B20022930003F1A04303F5A4
:10033800807301325B689DB2B5F5007F05D203EB8F
:1003480013439BB29C4238BF1C46032AECD10331AD
:1003580089101029B8BF10210B19B3F5A07F09D84F
:10036800800000F1A04044EA0144C0F800410120A7
:1003780030BC7047002030BC704700BF30B42E4CF2
:1003880000F07F00E3694FF001128240410101F162
:10039800A04123EA0203E361D1F800394FF0A042FB
:1003A80023F40043C1F800391469830124F4F86484
:1003B80044F0200403F4F8632343136101F5106546
:1003C80001F5306413699B06FCD4D1F80039002B81
:1003D8000EDBFF23AB6090B9D1F8003B23F4004358
:1003E800C1F8003BD1F8003BFF23A36030BC704745
:1003F800F8B14FF08042FF23C1F80029AB608300B9
:1004080003F1A04300F101104002C3F80001D1F844
:10041800003B23F40043C1F8003BD1F8003B002B1C
:10042800BCBF4FF08043C1F8003BFF23A36030BC42
:100438007047FF23AB60CFE7000800504FF0A043A0
:10044800F0B45C69E4062CD5DC6900F07F0004F0A8
:100458000F04844225D1186AC0F30A10F8B1124F6C
:10046800002506E0043A41F8043B92B2043585427F
:1004780015D2032A3B68F5D8002AF7D0013A92B280
:100488008E184C1E04F8013FA6424FEA1323F9D1F7
:1004980004350132854211444FF00002E9D3F0BC23
:1004A80070474FF0FF30FAE700100050F0B400F04A
:1004B8007F06750105F1A04505F51067D31CD7F82F
:1004C80018C09B109C4523D3340304F1A044104664
:1004D80004F58054C6B902F5002200263E613A614F
:1004E800D5F8002922F0044222F4001242F0044216
:1004F800C5F8002933B101EB830251F8043B2360AE
:100508008A42FAD1F0BC7047D5F80069002EE2DAC9
:100518004FF0FF30F6E700BF024B9868C0F30D209C
:10052800704700BF000800502DE9F04107460E460D
:1005380000244FF0A0454FF480586B6913F48051A4
:1005480020D1980459D45A035BD4D80672D5EC69E3
:10055800C4F34343023B04F00F04042B0DD8DFE837
:1005680003F02703030C2E00630103F1A043D3F823
:10057800002B42F00442C3F8002B2B6A6B6913F47A
:100588008051DED00020C5F81480FFF7F7FE012067
:10059800FFF7F4FE0220FFF7F1FE0320FFF7EEFE5F
:1005A8002B6943F010032B612B69DB06FCD4C4E7ED
:1005B8000521E2B238463346BDE8F04118476301E9
:1005C80003F1A04303F51063254A1B691A406AB179
:1005D8004FF0A0410A460B6923F4F86343F0200367
:1005E80043EA84130B6113699906FCD4E2B23846D6
:1005F80033460621BDE8F04118474FF400536B61BC
:10060800D7E7620102F1A042032C02F5106215D867
:100618009368DB0719D404F1207349335B0104E0C4
:100628009968CD0703F120030FD40134042C1A462E
:10063800F6D103E01A0503D4002B0CDBBDE8F081EA
:100648004FF400636B610221B3E7012344F0800497
:1006580093600421ADE74FF000436B610321A8E7E5
:100668000000F81F1D4B1E4930B41C681D4D0422A4
:10067800E3B25940013A05FB01F14FEA1424F7D1DE
:10068800194B184D1C680422E3B25940013A05FB86
:1006980001F14FEA1424F7D1144B124D1C680422BF
:1006A800E3B25940013A05FB01F14FEA1424F7D1AE
:1006B80005461C2221FA02F303F00F030A2B34BF6C
:1006C800302437242344043A25F8023F131DF1D17E
:1006D80040F21233038030BC12207047107AFF1F9B
:1006E800C59D1C8193010001147AFF1F187AFF1F12
:1006F8004088030A022B10B417D0032B0DD0012B0E
:1007080003D000205DF8044B7047094B12240B609E
:10071800012014805DF8044B7047C0B20228F0D85D
:10072800044B53F820301C78F1E7034B4B24EEE7D9
:10073800008D0000148D0000B48A000070B472B6F9
:10074800214C224E224D6660C0B20B28656022D92A
:100758001D4CE068C503FCD4206920F0030040F07C
:10076800010020615BB1184C154655F8040B086070
:100778000431E068C003FCD4A81A8342F5D8124BB0
:100788001A6922F001021A611A6942F000421A61DC
:1007980062B670BC7047E568ED03FCD425690A4E63
:1007A80025F47F7525F0010545F4007545F002052F
:1007B80045EAC0002061206940F480302061F0687B
:1007C800C003FCD4C4E700BF003C024023016745D6
:1007D800AB89EFCD054B06491A6810B40C68511C5B
:1007E800A05419605DF8044B704700BF500000101A
:1007F80094460010154B98421ED013D9144B9842BA
:100808001CD007D9B0F5482F02D0124B984207D117
:1008180003207047104B98420ED0104B98420DD0D1
:10082800002070470E4B984206D009D9B0F5403FDA
:1008380002D00C4B9842F3D1012070470220704738
:10084800A3F2AB239842EBD1F6E700BF00220300E6
:10085800565B0500808C0C0022250300005605001D
:10086800ABAD020000030300F8B5037ADB0600F124
:10087800E58000F116052A4600F21516FE2405E06B
:100888002E2908BF1C46B24200F0DA80531B12F82A
:10089800011BDBB20029F3D11B1B032B40F3CC80D7
:1008A80005EB040C64467C490334624612F8013FA8
:1008B80011F8016BA3F16105192DA3F120070CD8DC
:1008C800BE420CD1A242F1D100684FF6FC73033846
:1008D80098428CBFFF200220F8BDB342F2D06F4986
:1008E800624604E0B7420ED1A24200F0AB8012F893
:1008F800013F11F8016BA3F16105192DA3F1200740
:10090800F0D9B342F0D06649624604E0AF420ED156
:10091800A24200F09D8012F8013F11F8015BA3F19B
:100928006106192EA3F12007F0D9AB42F0D05D493A
:10093800624604E0B7420ED1A24200F08F8012F85E
:10094800013F11F8016BA3F16105192DA3F12007EF
:10095800F0D9B342F0D05449624603E0B7420DD112
:10096800A2427BD012F8013F11F8016BA3F1610597
:10097800192DA3F12007F1D9B342F1D04B496346B1
:1009880003E0AF420DD1A34268D013F8012F11F84C
:10099800015BA2F16106192EA2F12007F1D9AA4242
:1009A800F1D04349634603E0AF420DD1A3425DD085
:1009B80013F8012F11F8015BA2F16106192EA2F1BB
:1009C8002007F1D9AA42F1D03A49634603E0AE4282
:1009D8000DD1A3424AD013F8012F11F8015BA2F1FF
:1009E8006107192FA2F12006F1D9AA42F1D03249A4
:1009F800634603E0AE420DD1A3423ED013F8012F67
:100A080011F8015BA2F16107192FA2F12006F1D9B3
:100A1800AA42F1D0294A03E08D420DD1A44533D032
:100A28001CF8013F12F8011BA3F16106192EA3F16E
:100A38002005F1D98B42F1D0FF20F8BD0020F8BD88
:100A4800FF2329E703681B2B34BFFF200320F8BDD1
:100A58000368412B34BFFF200120F8BD0068FFF771
:100A6800C9FE00280CBFFF200420F8BD0368B3F5B9
:100A7800005F14BFFF200620F8BD0368B3F5803F70
:100A880014BFFF20FD20F8BD0368B3F5823F14BFF3
:100A9800FF20FE20F8BD00BF7C9000007890000089
:100AA80074900000709000006C9000006890000046
:100AB80064900000609000005C9000005890000076
:100AC800034B0449044A9961044B12681A60704741
:100AD80000080240004000A05400001058400010D8
:100AE80030B40649064C074B074A00254FF06040D2
:100AF8002570886130BC1A60704700BF000802404A
:100B0800EC4500105400001000C0002030B4074924
:100B1800074C084B4FF060454FF080604DF6FF7270
:100B2800A561886130BC1A80704700BF0000024090
:100B380000080240AE430010014B024A9A61704718
:100B480000080240004000A00349044B044A4FF04B
:100B5800604088611A6070470008024058400010E1
:100B680000C0002030B40549054C064B064D074827
:100B7800074AA56108601A6030BC704758400010E9
:100B880000080240540000100080006000C00020EF
:100B980058000010014B024A9A6170470008024051
:100BA80000800060024B4FF060429A61704700BFBE
:100BB8000008024010B40D4A1378002BFCD10C48F1
:100BC8000C4B03248021047011701A78002AFCD180
:100BD80009490A7840221A701A78002AFCD10A7842
:100BE80040221A705DF8044B704700BFA9430010FB
:100BF800A843001008000010AA430010044B4069E5
:100C0800186009B90368184743680121184700BFED
:100C1800F045001030B44069054D046928600B4662
:100C280091F82C10114393F82D20234630BC184717
:100C3800F045001008B54069024A036810609847FB
:100C4800002008BDF045001070B40D4A137803F079
:100C5800FF00002BFAD10B490B4D087002238024AA
:100C68002B7001F1250614701378002BFCD1B142CA
:100C78002870147002D011F8010FF5E770BC7047A6
:100C8800A943001000C00120A8430010FFF7DCBFF3
:100C980010B44A1E041D0F3112F8013F14F8010F59
:100CA8002A2B0ED03F2B08D07BB9A02809D0B0FA48
:100CB80080F040095DF8044B70470028FAD08A425A
:100CC800EAD101205DF8044B70478342F7D0002039
:100CD800F0E700BFF0B400240C71024602E03A2BA2
:100CE80030D01C4612F8013B002BF8D100240860D4
:100CF8004C718C7103784FF0010C032702260425F0
:100D0800421C33B12C2B06D010460378421C002B12
:100D1800F8D1F0BC704702F8014C4B795BB91378F5
:100D2800532B19D0552B14D04C2B0CBF2B463346C4
:100D38004B711046E9E78B79002BE5D143788B712D
:100D4800F0BC7047303CE4B2092C09D80C7110464D
:100D5800CCE74F711046D8E781F805C01046D4E7B4
:100D68001046C3E710B40D4B1A78002AFCD10C4981
:100D780080220A70C4B21A701A78002AFCD1802224
:100D88000C70C0F307201A701A78002AFCD1802250
:100D980008701A705DF8044B704700BFA943001033
:100DA800A843001010B40D4B1A78002AFCD10C4946
:100DB800812480220C70C4B21A701A78002AFCD1DF
:100DC80080220C70C0F307201A701A78002AFCD110
:100DD800802208701A705DF8044B7047A943001010
:100DE800A8430010F0B51B4C1B4A1C4E83B004F1FD
:100DF800080C802714F8015B1378002BFCD164459C
:100E080035701770F6D1071D802510F8014B13783F
:100E1800002BFCD1B84234701570F6D1104A114F2E
:100E280068460DF105064025137803F0FF04002BF2
:100E3800FAD13B78DBB200F8013BB0421570F3D130
:100E480068468DF80540FFF7BBF9B0FA80F0400915
:100E580003B0F0BDA08A0000A9430010A843001009
:100E680008000010AA43001070B40E4A0E4E83B05A
:100E780069460DF105054024137803F0FF00002BA7
:100E8800FAD13378DBB201F8013BA9421470F3D1EF
:100E9800064B009A9A4208BF9DF8040003B070BC44
:100EA800704700BF08000010AA4300104B46463A9E
:100EB80000B583B001AB4FF480320F4907F068F8F2
:100EC80050B10E4B4FF000529A610D4B0020D87272
:100ED800187303B05DF804FBBDF80430074A4FF0FF
:100EE8000051022B9161F0D9054A0120A2F80B307C
:100EF80003B05DF804FB00BF00C0002000080240FA
:100F0800904D001010B5ADF50C7D02A801223349B3
:100F180006F01CFF38B3324B4FF000529A61314C47
:100F280000214FF48062204607F0C3FC2E4B03CB10
:100F38002060616002A807F009FA29492B4A2C4B66
:100F48004FF0005088611168994238D0294B1B69CD
:100F5800DB0641D5274B186910F01000FBD1107043
:100F68000DF50C7D10BD044601AB4FF480621D49A0
:100F780002A807F00DF800B10194019B184A4FF040
:100F88000051B3F5806F9161C9D101AB4FF4803244
:100F9800194902A806F0FCFF08B100230193019B40
:100FA8000F4A4FF00051B3F5803F9161B7D1082245
:100FB8000C490D4807F04AFC0028BBD0AFE7A3F165
:100FC800D153A3F5A0135168053B9942BED10B4BF1
:100FD80091689942BAD1BDE70120C1E7748A00003F
:100FE80000080240904D0010888A000000C00120CF
:100FF8004B756E670000024000C00020656E7500EA
:10100800F0B590F828220B78032A054683B00C46E1
:10101800487820D0232B18D80021013BDAB2292A9E
:101028000CD90021284607F085FA194E4FF00057D1
:10103800B761D0B10020207003B0F0BD154A32F876
:101048001330184401EB0021ECE7022AE4D1233BDA
:10105800DBB21149E1E7013BDAB24F2AE1D803EBF1
:10106800830300EBC3031902DCE7284601AB4FF406
:101078008072214606F08CFF38B9019BB761B3F541
:10108800807FD7D1012003B0F0BDB761D2E700BFA0
:10109800000802408C8C000000AB02002DE9F041F2
:1010A800054600F20A3700F22A264FF00008D5F864
:1010B80030432034BC42314628460DD8C5F8304369
:1010C8006379A02B1DD0FBB1A37884F81580002B81
:1010D800EDD00120BDE8F08195F82A32C5F83063DB
:1010E80034465BB195F82932272B03F1010205D864
:1010F80085F82922FFF784FF0028E1D10020BDE808
:10110800F08184F81580D2E76375D0E710B5ADF5A6
:101118000C7D02A80A221E4906F018FE40B11D4B9C
:101128004FF000529A61002420460DF50C7D10BD49
:10113800044601AB4FF48062174902A806F0D4FFB9
:1011480080B9019B134A4FF00051B3F5806F91614C
:101158000AD0002402A807F0F9F80E4B4FF000520D
:101168009A61E1E70194ECE701AB4FF480320B4957
:1011780002A806F0B9FF08B100230193019C054BB2
:10118800A4F580314FF000524C424C419A61E1E79E
:10119800748A000000080240904D001000C0002032
:1011A80038B590F86330023B0446032B25D8DFE8B6
:1011B80003F002022F2594F86050B4F85C202368ED
:1011C800954228BF15460846DB69A16D2A4698470F
:1011D800B4F85C30A26D5B1B9BB22A44A4F85C3067
:1011E800A26553B994F86330022B03D094F86030A9
:1011F800AB4202D0042384F8633038BD83680025ED
:1012080080F86350002BF8D0416D9847A56038BD31
:10121800062380F8633038BD0529F8B5154604461D
:1012280027D0062907D0042900D0F8BD1146BDE80B
:10123800F840FFF7B5BF002380F863308360476D3F
:1012480003689B69B4F85E20394628469847082801
:1012580047D023681B6A012105F07F00984723685F
:1012680045F080001B6A01219847002384F8633009
:10127800F8BD90F86360476D0368012E12D0E0D383
:10128800062E2BD100229B69284611469847A36851
:10129800002584F86350002BC7D0616D204698471D
:1012A800A560F8BDB0F85C209B69816D2846984719
:1012B800B4F85C3082B29A4226D9236831461B6A58
:1012C80005F07F009847236831461B6A45F0800087
:1012D8009847002384F86330F8BD23681B6A01210E
:1012E800BAE7FB88A4F85C3007F10806A66597F909
:1012F8000010B4F85E20002913DB93B19342A8D8FC
:10130800012384F86330F8BD07D0A16D9B1A11FA48
:1013180080F0A4F85C30A065F8BDB4F85E2007F151
:1013280008066368A665A4F85C202BB104F10802DE
:1013380039462046984760BB3B7803F06302012A90
:1013480000F085802DD3022AC7D17A782368012A34
:1013580000F08580C0F09980032ABFD11B6A3879D4
:10136800012198473B781B0645F080007DD423680F
:101378000022DB6911469847052384F86330F8BDDD
:101388002369002BA9D004F15C0204F15801384606
:101398009847012861D002289FD1052384F863303B
:1013A800F8BD7A78092A98D801A151F822F000BF2F
:1013B80027140000E3120000E3120000E31200000B
:1013C800E3120000FB130000E1130000E312000029
:1013D8001F1400002D1400007A8840F2FE339A4250
:1013E800CED1236830461B6B9847A4F85C003B7845
:1013F800B9E723681B689847C20752D52368B878AD
:10140800DB6898477B88002B0CBF0223032384F8F2
:1014180062303B78A7E794F861203A72A3E700228C
:101428003A81A0E7E368BE78002B3FF456AF314617
:101438002046984701287FF450AF002E0CBF0323A5
:10144800042384F8616084F862303B788BE77A780B
:10145800002A7FF442AF3A8185E73B7883E71B6A2D
:101468003879002198473B787DE7FB88B4F85C2001
:101478009A4212D30222A4F85C3084F86320014611
:101488002046BDE8F840FFF78BBE5B6A387998477D
:1014980000237B7238723B7865E7032384F8633056
:1014A800EDE7024BA3603B785DE700BF89020000CF
:1014B800064B5B6B1B0607D5054B5B6813F0020FE9
:1014C8000CBF2920092070470120704700380240CE
:1014D8000008005003060ED4400100F1A040D0F8E7
:1014E800003B1A0406D5A9B923F0A15343F0A05331
:1014F800C0F8003B704700F07F00400100F1A040B9
:10150800D0F800391A04F5D539B143F40013C0F8FE
:101518000039704743F40013EAE723F0C15343F05E
:10152800C053F4E7030607D4400100F1A040D0F807
:10153800000BC0F34050704700F07F00400100F1FD
:10154800A040D0F80009C0F340507047002839D0B7
:10155800284A536B43F0800370B45363BFF34F8F33
:101568004FF0A0431A69002AFCDADA68224C2349B2
:10157800234D244822F0804222F4745242F08042E3
:1015880042F4C052DA604FF400129A6300222260DB
:101598004A6842F002024A600A6822F0407222F069
:1015A800030242F003020A60012434264FF0FF329E
:1015B8005E629D620C6198615A619A6822439A60E2
:1015C80070BC70470B4B5A6B120612D55A6942F021
:1015D80080025A61BFF34F8F5A6922F080025A6124
:1015E800BFF34F8F5A6B22F080025A63BFF34F8FBD
:1015F8007047704700380240000E00500008005045
:10160800340010001038048060B90D494B684FF061
:10161800A04243F002034B60936B23F4803393633F
:10162800002070474FF0A041054A8B6B43F480338C
:101638008B63536823F0020353600020704700BF98
:1016480000080050F8B578B9082A20D9102A51D9CD
:10165800484B494D494C4A48202A92BF1D464FF0F5
:1016680004444FF0006015E003061FD4400102292E
:1016780000F1A04042F014424ED006294CD0012976
:101688003CD042F44822C0F8002B0120F8BD3D4C64
:101698003D4D3E483E493F4ACB693F4E43F001131A
:1016A800CB613060156101201460F8BD00F07F0443
:1016B8006301012915460F4603F1A04642D00629C9
:1016C80022D011462046FEF727FE18B3304A0123E0
:1016D800D169A3400B43A405012FD36122463FD013
:1016E800022F26D045F0C05242F448221443C6F8CF
:1016F8000049F8BD294C2A4D2A48CBE742F49022EC
:10170800C0F8002B0846F8BD510089B22046FEF704
:1017180003FE38B90020F8BD42F40822C0F8002BB7
:101728000120F8BD1A4A0123D169A3400B43D361B4
:10173800A40545F0C05242F408221443C6F80049F3
:101748000120F8BD510089B22046FEF7E5FD0028CA
:10175800E0D00F4BDA6907FA04F11143D961A20509
:101768002A4342F0144242F49022C6F8002901208C
:10177800F8BD00BF200008204000082001000084B8
:101788000100000803000084080008200300000886
:1017980000080050000B00500009005002000084AF
:1017A80010000820020000080B7803F06303212BC7
:1017B80001D0002070478B88002BFAD14A78212A63
:1017C8000CD0222A11D0202AF3D1094B186888603E
:1017D8009A889B798B738A8101207047044B8365B3
:1017E8000723A0F85C30012070470120704700BF34
:1017F8000000001038B505460C46F9B101291BD187
:10180800036840221B690221204698472B68402222
:101818001B690221812098472B6808221B69032134
:10182800822098472B680D4ADB69AA63002211467B
:1018380081209847204638BD002038BD03688220A3
:101848005B6998472B6881205B6998472B68012062
:101858005B699847AC63012038BD00BF4122000096
:10186800F0B50021174C184F184A08460E4647F2A3
:10187800305C4FF0005E1525636BA72B16D9636BA0
:10188800A92B13D80131C9B2C7F818E05560966082
:101898001368DB03FCD50329EED10A4B6FF008026D
:1018A8001A61DA6842F00802DA60F0BD604502D8D1
:1018B80001300021EAE77B69002083F400537B6153
:1018C8000146E3E7000001400008024010E000E0A4
:1018D800084B094A10B441F268004FF40044002153
:1018E800946158601A4699601368DB03FCD55DF86B
:1018F800044B704710E000E000000240002208B5E9
:1019080010460E4906F0F8F90D4A0E4B4FF40051F7
:101918009161DA686FF008010A40DA601961FFF72F
:10192800D7FFBFF34F8F0849084BCA6802F4E0623B
:101938001343CB60BFF34F8F00BFFDE7908A0000D1
:10194800000802400000014000ED00E00400FA0534
:10195800034A07CA08B5034B83E80700FFF7CEFF21
:10196800948A000000C001201B4B1A6910072ED56D
:101978006FF01801194A19611069A2F5806211699E
:10198800C90719D51269D2B202F0C001C0291CD00A
:1019980030B4134A134C1568134AC0F30D0045F2CE
:1019A8005551285C207011801A69D106FCD50E4B60
:1019B80000221A8030BC704712690B4B92071969D4
:1019C80005D44FF060429A617047900700D5704780
:1019D800054B064A9A617047000001400004024026
:1019E800540000101408024000080240004000A003
:1019F800034A1369DB06FCD5024B00221A807047A4
:101A08000000014000080240294B1A6910070DD553
:101A18006FF01801274A1961126903F580331969B3
:101A2800C90704D41B69244B1B697047704730B43D
:101A380092B21B69DBB2580613D559072BD59B0701
:101A480021D51E4A138853B1013B9BB2138033B989
:101A580003F1804303F502334FF460429A6130BCCE
:101A68007047174B154C18681649134BC2F30C02F4
:101A78004FF40075805C258045F2555208701A8035
:101A880030BCFFF7B5BF0D490B4B0F4A4FF4007040
:101A980008809A61E3E70A4B0A481C68064BC2F3C0
:101AA8000C0245F25551A25C02701980E8E700BFAC
:101AB800000001400004024000080240AC4300104E
:101AC8005400001014080240004000A01C4B1A6982
:101AD800120726D56FF018011A4A1961126992B2D5
:101AE80019490869C00717D50969C9B2480621D438
:101AF80030B41649164C0D681649C2F30C0245F26B
:101B08005550AA5C227008801A69D206FCD5114B80
:101B180000221A8030BC70470B690E499B0709697F
:101B280000D5704702F03F020B49084B51F82220BC
:101B38001A6070478907F4D4044B084A1A60704742
:101B48000000014000040240000002405400001060
:101B58001408024000080240008B000000C000206A
:101B68001A4B1A69120721D56FF01801184A196122
:101B7800126918490869C00719D592B20969C9B22A
:101B8800480618D430B41449144C0D681449C2F3EB
:101B98000C0245F25550AA5C227008801A69D206D8
:101BA800FCD50F4B00221A8030BC704770470B6978
:101BB8000B4B1B6970478907F8D402F03F020949AB
:101BC800054B51F822201A60704700BF0000014001
:101BD80000040240000002405400001014080240B3
:101BE80000080240008B00001E4B1A6911070DD532
:101BF8006FF018011C4A1961116903F580331A69DD
:101C0800D20704D41B69194B1B697047704770B41D
:101C18008AB21B69580611D51B060DD4144B1548FA
:101C28001C68124BC2F30D0245F25551A25C0270BA
:101C3800198070BCFFF7DCBE70BC70470E4B0F4EAE
:101C48001B680C4C0948C2F30B02C1F300319D5CC0
:101C5800074B56F82120257045F2555101801A602E
:101C6800E7E700BF0000014000040240000802400E
:101C7800540000101408024058400010008B000067
:101C88001D4B1A69120732D56FF018011B4A1961EA
:101C9800126992B21A490869C00716D50969490636
:101CA80025D430B41749184C0D681849C2F30C02F2
:101CB80045F25550AA5C227008801A69D006FCD5F6
:101CC800124B00221A8030BC704709690F4B8907F4
:101CD80018690CD4B2F55E4F09D1020608D400F099
:101CE8003F000B4A074B52F820201A607047704794
:101CF8004FF460429A6170470000014000040240BE
:101D0800000002405400001014080240000802407D
:101D1800008B0000424B1A69120735D56FF0180185
:101D2800404A30B41961116989B203F580331A69E0
:101D3800D00713D51B69DBB203F0C002C02A2BD031
:101D4800394B3A4C1D683A4AC1F30D0345F25550D8
:101D5800EB5C2370108030BCFFF74ABE1B69DBB216
:101D68003348026913F00204D2B20ED1C9B2022973
:101D780046D00A293FD069B902F03F022D492A4BC3
:101D880051F822201A6005E070475B0702D4CBB2F5
:101D98002949CA5430BC704713F0020213D14DF6DA
:101DA800096399421BD04DF60A639942F2D1234B3D
:101DB8001E4D1B781E482249DBB245F255542B7044
:101DC80004800A70C7E75A07E4D4CBB21A49174807
:101DD800CB5C174A037045F255531380BBE7194A89
:101DE800174B12481B781178114A0B4345F255518D
:101DF80003701180AFE71449124B0A701C70C9E7D1
:101E0800510902F00204C2F3800301F0040123EA3D
:101E1800020221430A430D4B53F822308361B9E78C
:101E28000000014000040240540000101408024061
:101E380000080240008B000058000010A843001062
:101E4800A943001008000010AA430010208D0000CC
:101E58001D4B1A69120735D56FF018011B4A10B4CB
:101E68001961116903F580331A69D00713D51B6905
:101E780003F0C003C02B22D0154B16481C68164B24
:101E8800C1F30D0145F25552615C01705DF8044BD8
:101E98001A80FFF7ADBD19690F4A890713690ED477
:101EA800DBB203F007040D48094950F82400086024
:101EB8005B064CBF4FF460434FF0604393615DF89D
:101EC800044B7047704700BF000001400004024007
:101ED800540000101408024000080240008B000063
:101EE800531EDBB2013370B40246202618440DE0BD
:101EF800A3F16104192DE4B201F1010103F12005F8
:101F080011D8EBB2904202F8013C09D00B780132AB
:101F1800A3F14105002BEBD1904202F8016CF5D1F9
:101F2800084670BC7047192CA3F1200403D95F2B15
:101F380008BFA423E6E7E3B2E4E700BFF8B5457FAE
:101F4800162D1CD005EB4503134F6E1C1B01F6B272
:101F5800DC19F1B14FF0200C03F807C0037F162BF2
:101F68000BD0A162114646772422601CFFF7B8FF08
:101F7800202384F825302046F8BD0577F1E715239E
:101F8800054F43772E461D464FF47C73DC19002914
:101F9800E0D1E025DD55E4E700E001202DE9F84334
:101FA800DFF8549006464FF0E0080027737F03EBF4
:101FB8004304162B14BF24014FF47C7403F101026F
:101FC80009EB040518BFD3B209F804802422AF62D4
:101FD800681C7377FFF784FF202385F82530037882
:101FE8000146002BE2D119463046024ABDE8F843C3
:101FF800FFF7A4BF908A000000E00120114B1A6887
:1020080070B506460C469AB10F4A0E4812689E6192
:102018009A424FF0160518BF5A619D830B4A00215A
:10202800FFF78CFF21460748FFF7B8FF054870BD4A
:102038000749084A084819600849C3E90102C3E981
:102048000321E1E7F4450010F0450010908A0000F4
:1020580045210000950C0000050C00000922000035
:102068000B46052B2DE9F041014615462BD81D4896
:102078001D4A1E4C50F8230054F8237052F8236070
:10208800FFF7BCFF3A461A490446FFF757FF0023FB
:1020980080F82D5080F82C304EB132461449204635
:1020A800FFF74CFF022380F82D5080F82C30114A9E
:1020B80011492046FFF742FF104A23681460204662
:1020C800BDE8F04118470E48FFF798FF0D4A084948
:1020D8000446FFF733FF002380F82D5080F82C309A
:1020E800E5E700BF1C8A00004C8A0000348A000023
:1020F8001D0C0000848D00003D0C0000F045001010
:102108008C8D00009C8D000070B51546FFF776FF9A
:1021180029460446FFF742FF2046054A0549FFF7CE
:102128000DFF054A236814602046BDE87040184733
:10213800EC8E00003D0C0000F04500102DE9F8433E
:102148002B4C06462378002BFCD12A4DB1692A482E
:102158000123802722222B702770FFF7C1FEDFF8AA
:1021680098C061460CF1220E11F8010B237803F098
:10217800FF02002BFAD1714528702770F4D196F828
:102188001DE0BEF1000F20D096F81C801B4E1046B3
:1021980013464FF0A0098027984512BF16F8251C52
:1021A80006F8259CA021A6F125022378002BFCD156
:1021B80096422970277002D012F8011FF5E7013006
:1021C800C3B29E4506F13006E6D80B4A002102F15B
:1021D80025068CF8001080202378002BFCD196422D
:1021E8002970207002D012F8011FF5E7BDE8F883C6
:1021F800A9430010A843001000C0012025E00120D9
:1022080070B5447F944203460ED90A4C02EB42054E
:1022180004EB0514A56A3DB102772B4601F0BF0215
:102228002146BDE8704018471846FFF787FF002091
:1022380070BD00BF00E00120042938B514D005297D
:1022480011D11A4C2368B3F5E07F27D203682268BE
:1022580017499B691144012040229847002802DD54
:1022680023681844206038BD124C134D23683F2B57
:1022780098BF2268036894BF92B24022DB6929465E
:10228800812098470028EEDD23681B1A236029184F
:1022980022682846BDE8384006F0F2BA4FF0A0425E
:1022A800936823F00103936038BD00BF7C49001098
:1022B8007C470010804B00108049001008B5094881
:1022C80006F056F8084B00284FF000520CBF0120CA
:1022D80000209A6105D0054B002283F8202083F85E
:1022E800002308BDB04D001000080240904D0010BA
:1022F8000D4B0E4810B54FF0FF325A739A730C46C7
:1023080006F024F80A4A0B4B0B484FF00051916134
:1023180018601CB90368BDE81040184743680121DC
:10232800BDE81040184700BF904D001070400010E5
:1023380000080240F0450010144600100A780AB957
:102348000020704710B50C46FEF75AFE30B12378CE
:1023580033B9607810B10138C0B210BD002010BD8B
:10236800FE2010BD10B590F82832032B0CBF282290
:102378001222002380F82A2280F82B3200F22A2128
:102388000446FEF73DFEE0B194F82832032B0CBF5B
:1023980004F22E2304F2BA230022C4F82C33DA758F
:1023A80094F82832032B0DD01222012384F82A2214
:1023B80084F82B32002204F22A3384F82922C4F844
:1023C800303310BD282284F82B3284F82A22F1E712
:1023D800F8B5144C144E94F83C32C4F84463032BFB
:1023E8000CBF4FF44A734FF48973A4F83E320023AC
:1023F80007460D46A6F22A3684F83D323046FEF7E7
:102408004DFE394660B1D4F84433184625B19B785F
:1024180003F007039D42F1D1FEF73AFC0028EDD006
:10242800F8BD00BF5C4000109A430010F8B5374F64
:10243800374D3A46002304E0B3F5387F02F8011B14
:1024480056D015F8011F9CB2164601330029F3D166
:1024580098B1012C46D90134A4B221462D4B93F8EA
:1024680000332F223270A3B12B4A3B5512F8013F9B
:102478000134A4B2002BF8D13E19002333704CB9B3
:102488002E233B80214921482222FFF729FD20469F
:10249800F8BD7B54222C16D8012C07D01B491B48A9
:1024A80000242222FFF71CFD2046F8BD3C7817497E
:1024B8001648A4F12F04B4FA84F464092222FFF721
:1024C8000FFD2046F8BDA4F1220189B24A1C2E2333
:1024D8007B540024BB54394422220C48FFF700FDEA
:1024E8002046F8BD0B4B93F80033002BBCD1C4E752
:1024F80030B987F8E00240F2BF2240F2BE21E6E799
:1025080040F2E121054E0C46A8E700BF00C00120BB
:10251800AF4D0010904D001090500010E0C2012007
:1025280038B5174C0146012204F1140005F00EFCE1
:1025380028B1144B4FF000529A61002038BD206A30
:10254800FEF758F9054684F83C0278B1032D0CBF14
:102558004FF44A734FF48973A4F83E3200220A4BB1
:1025680084F83D22C4F84433012038BD04F1140036
:1025780005F0ECFE034B4FF0005228469A6138BD37
:102588005C400010000802409A4300102DE9F04317
:1025980001EBD17883B04FEA68080022124F01900E
:1025A8008946C8F1040815460DF1070616F80149D1
:1025B800230974B104F00F04F85CFEF70BF9385DD9
:1025C800FEF708F901220135042DEFD103B0BDE86B
:1025D800F083B9F1000F04D1032DEBD0002AF2D01B
:1025E800E8E7A845E6D9F7E7F08E000030B5104CCB
:1025F800104B6360104D002383B0A3602168C903AA
:1026080001AB4FF001024FF00D000DD429880904E9
:10261800FDF7E0FD0028F1D0019B03F4F053B3F57A
:10262800006FEBD103B030BD002003B030BD00BF58
:1026380010E000E0A037A0004C000010014B024A57
:102648009A61704700080240004000A02DE9F84355
:10265800364F01F548790A463E4605E05FFA8EF3A3
:10266800914506F8013B1AD0551A12F8013BA3F11F
:102678006104A3F1410CE4B203F1200EADB2B046FF
:10268800A3B1BCF1190FE9D9192CA3F120040BD976
:102698005F2B08BFA423914506F8013BE4D140F223
:1026A8002135DFF89C8003E0E3B2D9E70135ADB20C
:1026B80000231F4988F80030FEF794FB002832D029
:1026C8001C4AE9B21378002BFCD1DFF878C08023CC
:1026D8008CF800101370C5F307211378002BFCD178
:1026E8008CF800108026114916703D4411F8014BF2
:1026F8001378002BFCD1A9428CF800401670F5D154
:102708000D4B1A78002AFCD10C4C2178C9B2402212
:102718001A701A78002AFCD12278D2B240241C7090
:1027280001B902B10020BDE8F88300BF00C0012054
:10273800AC8A0000A943001008000010AA4300104A
:1027480020C30120A843001008B5FEF733FA034957
:102758000348FFF77BFFFFF7FBF800BF688D000019
:10276800808D000008B5012205F0F0FA28B1034B6E
:102778004FF000529A61FFF7E7FF08BD00080240DA
:1027880038B50A4B1A6822B1FFF7CAFE60B107488C
:1027980038BD074A074D084C08491A60084AC3E97A
:1027A8000154C3E90312EFE7FFF7CEFF5C400010C6
:1027B800893B0000F9220000113B0000A53A000007
:1027C800413C00002DE9F04101EB810601EB460692
:1027D8007600022E80F8481317D9804600F11407B6
:1027E800022403E00134A4B2A6420ED03846FEF714
:1027F80055FC05460028F5D13846FFF7B3FD40B132
:1028080088F848532846BDE8F08101252846BDE8E8
:10281800F081FFF799FF00BFF8B500F118040646EC
:102828000C49204605F034FF28B10B4B4FF00052FD
:102838009A61FFF789FF07460FCC06F148050FC5D7
:102848000FCC0FC594E80F0085E80F00A6F8787044
:102858007775F8BD908A00000008024008B50A4A5A
:102868000A4B12781A72FEF7A5F909490948FFF7C9
:10287800EDFE094BDA686FF008010A40DA60196169
:10288800FEF744FCFFF764F890460010904D0010E6
:1028980020900000349000000000014044490B697A
:1028A8001B0740F184804348DFF81CC1424B2DE9E7
:1028B800F0434FF00042414C414D424F826145F296
:1028C80055564FF0000E22691FFA82F902695FFA25
:1028D80082F808F00902012A3CD018F0010F55D0FF
:1028E80008F0C002C02A0CD0DCF80020C9F30D099A
:1028F80012F809203A702E804A6A932AFCD9A5F862
:1029080000E018F0100F48D14A6A532AFCD84A6AE6
:102918005A605A68112AFCD9D4F810805A68202ABB
:10292800FCD9026902F0C002C02A0CD0DCF80020F1
:10293800C8F30D0812F808203A702E805A683C2A0D
:10294800FCD9A5F800E05A68602ABCD85A68602A01
:10295800F9D9B8E700BF00BF00BF00BF00BF00BF84
:1029680000BF02695FFA82F808F0C002C02AC8D026
:10297800DCF80020C9F30D0912F809203A702E80FE
:102988004A6A932AFCD9A5F800E0BAE74A6A812A7C
:10299800FCD918F0100F2A69B6D0054BDA686FF029
:1029A80008010A40DA6019611961BDE8F0837047CF
:1029B8000000014000000240001000E00004024056
:1029C8000008024014080240540000100EB42DE91B
:1029D800F04F82B00BAA874952F8045B864E2B78D9
:1029E80001920024074608603460002B00F0008143
:1029F800A246252B29D0002C3CD0A3F15802202A2E
:102A080000F2E580DFE812F0AD00E300E300E30048
:102A1800E300E300E300E300E300E300E300A300D6
:102A28007300E300E300E300E300E300E300E300F6
:102A3800E300E300E300E3006300E300E3003D009C
:102A4800E300B800E300E300AD00C4B13268511CF4
:102A5800BB543160002415F8013F002BC9D13368FD
:102A68001F440133002233603A7002B0BDE8F04FD2
:102A780003B070473268511CBB543160EBE7012446
:102A8800E9E70AF1FF30BAF1000F0AD03368FA1803
:102A98009244202102F8011B5245FBD10133034423
:102AA800336001990B681A780431019162B130687A
:102AB800411E3944C01A013301F8012FC41813F814
:102AC800012B002AF8D134600024A246C3E73368FA
:102AD800019A3021F954F9187820487010680233A7
:102AE8000432514633600192FFF750FDB2E7019A74
:102AF800D2F800B00432BBF1000F019273D004DAAF
:102B08002D20FDF767FECBF1000BDFF8F4909BFB5F
:102B1800F9F04FF00A08002209FB10BBA0B13030D1
:102B2800C0B2FDF757FE2246344BB8F1010883FBCB
:102B380009314FEAE979C9EBA1098BD09BFBF9F080
:102B480009FB10BB0028EAD1002AEDD0E7E7019A7B
:102B580033681178F9540432013301923360002448
:102B680079E7019B51461A1D186801924FF0000A37
:102B7800FFF70CFD54466EE7019AD2F800B0043214
:102B88000192BBF1000F2ED0DFF874909BFBF9F097
:102B98004FF00A08002209FB10BBA8B13030C0B2C0
:102BA800FDF718FE2246154BB8F1010883FB0931E1
:102BB8004FEAE979C9EBA1093FF44CAF9BFBF9F067
:102BC80009FB10BB0028E9D1002AECD0E6E7A3F105
:102BD8003002092A3FF63EAF0AEB8A0A03EB4A03A2
:102BE800A3F1300A37E730205C46FDF7F3FD32E702
:102BF800012337E7944600105000001067666666A8
:102C080000CA9A3B10B510480378DA070C4615D568
:102C180023F001030D4A03700D490E48FFF7D6FE55
:102C28000C492422601CFFF75BF90B4A202310682B
:102C380084F8253003689847002010BD43F001034D
:102C4800064A0370E8E700BF9046001000900000B5
:102C58000490000000C00120F0450010FC8F000027
:102C68002DE9F04F077DCBB081460191002F40F050
:102C78009B80B0F878B004AEBBF1000F61D0DFF8EC
:102C880058814E4C4E4D09F1480B5846314605F0D7
:102C98004DFD4C4B4FF000529A61002865D1B37D31
:102CA800002B64D07B1CBB46DFB24FF0200A1F22EA
:102CB8000DF12601444888F800A0FFF711F9327A8F
:102CC80088F820A0D30649D4404B326893E8030023
:102CD800B2F57A7F02908DF80C1063D302AB00E056
:102CE8000B461832920AB2F57A7F03F10101F7D246
:102CF8005B78632A37D82021092A88F821105AD806
:102D0800334888F822103349FFF760FE019B324AA6
:102D18005B4504BFA02388F800304FF0800C02F117
:102D2800260012F8011B2378002BFCD1824229705F
:102D380084F800C0F5D1162FA5D138464BB0BDE8B0
:102D4800F08F42F62E62102386F818B0F2823372A2
:102D58000127DFF88480194C194DA6E71F49204840
:102D6800FFF734FED2E71E48CDE70023B375584677
:102D780005F0D2FC134B184A4FF00051996101231A
:102D8800002189F8153002F1250688F80010802006
:102D98002378002BFCD1B24229702070CDD012F8D4
:102DA800011FF5E74223A4E7DFF82C80034C044D0C
:102DB800002704AE67E70B48A5E700BFA94300104A
:102DC800A84300100008024001C00120F48F000051
:102DD80023C00120EC8F000000C00120E48F000018
:102DE80021C0012022C0012070B5234A8CB011787F
:102DF80001F0FF030029FAD1204D417D02268024ED
:102E08002E70147079B11E480146037001F1250631
:102E180018461378002BFCD18E422870147022D0EB
:102E280011F8010FF5E700F1480604460FCE6D468C
:102E38000FC50FCE0FC596E80F00B4F878600136BD
:102E480085E80F00A4F8786016212046FFF708FFF0
:102E580058B16D460FCD18340FC40FCD0FC495E887
:102E68000F0084E80F000CB070BDB4F87830013B57
:102E7800A4F878300CB070BDA9430010A843001026
:102E880000C001202DE9F047B0F87830C6B063B330
:102E980003F1FF380746FFF7BFFC2B4A1FFA88F8F3
:102EA8001378002BFCD108EB880308EB43035B0085
:102EB8002648022480219BB204701170D3B907F10F
:102EC8004805A7F878802C460FCC07F118050FC5E0
:102ED8000FCC0FC594E80F0085E80F00384616217F
:102EE800FFF7BEFE46B0BDE8F087FDF7ADFE46B081
:102EF800BDE8F0873A7DEAB99E1EB6B2DFF850A069
:102F0800013607F1480500244FF000596946284664
:102F180005F00CFC0134CAF8189070B107F11806D6
:102F28000FCE2C460FC40FCE0FC496E80F0084E8CE
:102F38000F00D3E75E1EB6B2E0E79DF81630002B0F
:102F4800ECD0B442E2D1BCE7A9430010A84300107A
:102F5800000802402DE9F04FDFF884A1DFF88481F2
:102F6800D3B00646FFF758FC4FF438710AF1200039
:102F780005F034FA4FF00053C8F818300020FFF776
:102F880055FA30759AF80033002B00F09F8006F14F
:102F980018073D4686460FCD6C460FC40FCD0FC4AB
:102FA80095E80F000AF5407984E80F0006F1480516
:102FB800BEF1000F6CD1B6F87840B4FA84F4640915
:102FC8004FF0005B0CA9284605F0B0FB4FF4807267
:102FD8000DF14601C8F818B0002836D000238DF846
:102FE80046306C460FCC0FC70FCC0FC794E80F00C4
:102FF800EC4687E80F00BCE80F000FC5BCE80F00DF
:103008000FC594E80F00002785E80F001624A6F8DE
:1030180078702F4A1378002BFCD12E4F2E490123AC
:1030280080253B7001F1220C157011F8010B137803
:10303800002BFCD1614538701570F6D12146304619
:10304800FFF70EFE53B0BDE8F08F9DF846304846B6
:10305800002BC6D005F03DFC631CD8B1DCB2162CA1
:10306800B0D1AC46BCE80F003C460FC4BCE80F002A
:103078000FC49CE80F00B6F878C096F814E00CF17D
:10308800010C84E80F00A6F878C0BEF1000F92D0BA
:10309800002495E70FCF0FC50FCF0FC597E80F0096
:1030A80085E80F000CA8FDF7DFFB0428B1D1BAF8BA
:1030B8000D204FF6FF739A42ABD00DF14600FFF793
:1030C8005FFB0649026808609047BBE71624A0E743
:1030D800A9430010A843001000C00120F0450010CB
:1030E800904D001000080240F8B505460E46FAB1AA
:1030F800027DEAB91848114607E0013294B22F2B35
:1031080008BF2146B2F5387F03D010F8013F002BE5
:10311800F3D1124F541A2246394407F5387005F096
:10312800A4FBA7F120022244002382F8003303E025
:103138000B4B002283F80023304605F019F9094BA0
:103148004FF000529A6120B92846BDE8F840FFF7D1
:1031580001BFFFF7F9FA00BFAF4D0010B04D0010E6
:10316800904D00100008024019B901220349FFF7E9
:10317800BBBF00220249FFF7B7BF00BF648D000044
:10318800608D00002DE9F04FA94C002384F800332E
:10319800067D63724FF0FF33ADF5777D82468B462F
:1031A8006373A37391461EB9B0F87830002B56D0DC
:1031B800C8460AF118060FCE0AAD0FC50FCE0FC5C7
:1031C80096E80F009B4F85E80F004FF0005600254A
:1031D80026A90AA805F0AAFABE61002840F087814E
:1031E8009DF8AE301BB10135EBB29845F0D2914F46
:1031F8000AA84FF0005605F08FFABE619DF8AE5050
:1032080025B326A8FDF730FB0DF1AE0180468A48AC
:1032180005F057FB1BF040033BD1B8F1000F27D056
:10322800B8F1030F41D9B8F1FD0F00F0A380B8F150
:10323800FE0F68D0B8F1040F00F0D1800DF1AE0296
:103248007E497F48FEF760FF002603E05046FFF7FF
:1032580081FE2E4630460DF5777DBDE8F08F9AB990
:1032680011F0400F4AD031467648FEF7F9FEF1E7F3
:1032780050460DF1AE014246FFF736FF464630464E
:103288000DF5777DBDE8F08F02F1FF385FFA88F819
:103298008FE70DF1AE004A464146FEF7E1FE0026F3
:1032A80030460DF5777DBDE8F08FB8F1020F32D2C8
:1032B800B8F1010FC2D16CAD28460DF1AE010DF188
:1032C8005808FFF74FFA284606AB4146402204F05B
:1032D8005FFE002840F09E80069BBE61402B05D112
:1032E800594BD8F800209A4200F003810DF1AE0244
:1032F80052495348FEF708FF0026ABE7012251491F
:10330800FFF7F2FEA6E70DF1AE02504950481E46FF
:10331800FEF7FAFE9EE76CAD28460DF1AE0101936B
:10332800FFF720FA019BE373B8F1020F00F0D08099
:1033380006AB16A91A22284604F02AFE002840F0F7
:10334800C580BDF81830BE611A2B04D1414B169ABE
:103358009A4200F045820DF1AE0238493848FEF72E
:10336800D3FE0026284604F0F1FF324B4FF00052FE
:103378009A616FE71BF0010F40F04B826CAD284655
:103388000DF1AE010DF15808FFF7ECF92846434658
:103398004FF48032304904F0FBFD60BBD8F80030B0
:1033A800BE61B3F5803F27D12C480DF16B0442462E
:1033B80009E0A3F1410119299CBF2033DBB202F8CF
:1033C800013BA24250D010F8013BA2EB0801C9B260
:1033D800002B4AD01906ECD503F07F03EFE71BF06A
:1033E800020619D01A461E491B48FFF7EFFA0126B4
:1033F80084F809802EE7BE610DF1AE020F4910482E
:10340800FEF782FE284604F0A1FF0A4B4FF0005257
:103418009A6171E7BE6169E70DF1AE006673A67344
:10342800FFF7AEF90F4902680860904712E700BF3E
:10343800904D00100008024090500010AC8D000024
:10344800D08D0000648D000043363420BC8E00000F
:10345800E08E00004336344600C000200080012082
:10346800548E0000F04500101321002308F80130A5
:10347800BE4BD8F800209A42BED1BD4A179B934252
:10348800BAD1BC4A189B9342B6D19DF86430682BD8
:10349800B2D1B949B948FEF7B1FD41460446FEF735
:1034A8007DFD2046B64AB749FEF748FD012380F85E
:1034B8002D9080F82C30B44AB4492046FEF73EFDE2
:1034C800B34A23681460204698479BE7BE6142E7E9
:1034D8002846FDF7EDFC00283FF43DAFFDF76AFBF9
:1034E800002302226373A373627201263AE7FFF78F
:1034F8002BF917ABA74A196891427FF4F7AE02F18E
:10350800724202F5720253F8041F02F60F0291424A
:103518007FF4ECAE5A68A04B9A427FF4E7AED8F835
:103528001010B8F8143009BAC8F810105BBA9BB27A
:10353800A8F81430B8F8162052BA90B24029A8F862
:10354800160002D020297FF4D1AEB3F5807F7FF436
:10355800CDAE202800F2FB80904B53F82030002B92
:1035680000F0F580FDF726FB8D498E48DFF8449280
:10357800DFF850B2FFF76AF88B4B8C48DA686FF0C7
:1035880008010A40DA600DF1100A196100264FF4AB
:103598008032FF21CAE9006605F08BF96A69EB6899
:1035A8009A427DD003AB102206A9284604F0F0FC0D
:1035B800002840F09B80039B4FF00052102BC9F865
:1035C800182040F09780069B794A934240F09280F9
:1035D800079ABDF8203092FA82FCCDF81CC05BBA7D
:1035E800ADF82030BDF822305BBA98B2ADF82200B1
:1035F800BDF824707FBABFB2ADF82470BDF82610AC
:1036080049BA8AB202F1100EF445ADF8262071D3FA
:10361800B7F5004F00F0968027F4804CBCF5204F9A
:1036280000F08880B7F5704F64D1B2F5805F61D142
:103638009FB2BF0307F54057032875D9594603AB16
:10364800284604F0A5FC00286CD1039A4FF00053DB
:10365800C9F81830BDF8263093424BD1BDF8222066
:10366800111F3B2963D8D20807F100611AF802003C
:10367800002877D10127101D0AF802704FF4005274
:1036880040B2C9F818205A46FDF758F8BDF822206C
:10369800964283D80132D6B2EB686A699A4281D1E0
:1036A800444B4FF000529A6146B3434A9368042E44
:1036B80043F00103936008D9B303404903F1006361
:1036C8000868106004319942FAD13B4BB8F81610DB
:1036D800186898F8182098F81930E67301262061C0
:1036E800A4F80B106273A3736672B3E5314B4FF005
:1036F80000529A612F4B4FF000529A612A4BDB68B7
:10370800180740F183800DF1AE022D492D48FFF7CF
:103718005DF92C492C48FEF799FF2C492C48FDF7F8
:1037280061FBE9E5002291E72049394487E73F2A10
:10373800AED933E7B2F5005FDCD89FB2BF0307F517
:10374800005779E7B2F5804FD4D8870374E792B26F
:1037580020491C48FFF73AF91F4A1A491F48FEF743
:10376800D3FCC9E54FF0FF308DE700BF4B756E679E
:1037780020467520466C6173688E00008C8E0000B0
:10378800A08E00001D0C0000848D00003D0C000080
:10379800F04500104341525445202020188900006C
:1037A8000C8E0000349000000000014000C0002092
:1037B8004348495000080240003002400000010818
:1037C800288E000000C00120808D0000488E000077
:1037D800508E0000F08D000090500010D08D000039
:1037E800179A1F4B9A427FF4B6AD28460027FDF77B
:1037F8005FFB00283FF4AFAD18AE0FCE194EE77748
:10380800C4F80F007160B260F36067E6FEF728F84D
:1038180079E70193FDF7CEF913491448144DFEF7E3
:1038280015FF144A019BD1686FF0080021F00801C8
:10383800D1601E4610614FF000647B6983F4005329
:103848007B612A194FF48043214670B201361C442B
:10385800FCF774FF042EF0D1FDF758FCFEF778F85A
:10386800696C65009F4D0010A88E00003490000020
:1038780000C00018000001402DE9F04F87B04FF05C
:10388800000BDFF800927A4C7A4DDFF80C82039037
:1038980005915E46F3B20193002E00F0B180019BC2
:1038A800012B00F0B880039B03F11400FDF7F6FB31
:1038B8008646002800F08C80039A2023D2F84423FF
:1038C8000292002189F80030B2F81EB004938C46A9
:1038D800084642F21072BBFBF2F3A8FB03A7FF08ED
:1038E80007EB8707A3EB47039BB2DFB20CF1010A92
:1038F8003037002B65D14B42DBB2002861D1042B55
:103908005FD009EB0103049F5F710139A8FB023204
:103918004F1D4FEAD202DED1574A029B202002F106
:103928001A0789F80600591D0AE00D2B01F101015B
:1039380045D00A2B08BF5F23BA4202F8013C07D0E2
:103948000B780132002BF0D1BA4202F8010CF7D102
:10395800029B029F93F90230484A4948002BACBFAA
:103968002A23202389F82130BB7803F0070352F873
:10397800231004F0A6FFBB785B064CBF3C23202332
:1039880089F82530059B019A93423E4A04BFA0233B
:1039980089F80030802702F1260012F8011B2378ED
:1039A800002BFCD1824229702770F6D10136162EE1
:1039B8007FF470AF0196019807B0BDE8F08F5F23E0
:1039C800BAE7314B70460CF803705FFA8AFC9CE743
:1039D80003992C4AD1F840331870012381F84933F0
:1039E80002F12506014689F8000080202378002B83
:1039F800FCD1B24229702070DDD012F8011FF5E722
:103A0800039B93F84833002B7FF44DAF1F491D48A3
:103A1800FEF7DCFFB6E7039B93F84833002B7FF4EF
:103A280042AF039B17481A49D3F840A3FEF7CEFFCD
:103A38001148202200F11A070AE00D2B0AF1010AA9
:103A480013D00A2B08BF5F23B84200F8013C08D006
:103A58009AF800300130002BEFD1B84200F8012C61
:103A6800F6D10C49FEF7B2FF8CE75F23ECE700BF05
:103A7800A9430010A843001007C00120E08C0000F3
:103A880022C0012000C0012001C00120548C000088
:103A98007C8C0000848C0000CDCCCCCC70B5174A4F
:103AA800117801F0FF030029FAD1154D90F8491358
:103AB800022680242E70147079B1124801460370D2
:103AC80001F1250618461378002BFCD18E42287088
:103AD800147011D011F8010FF5E790F8483301334D
:103AE80080F8483316210446FFF7C6FE20B994F83B
:103AF8004833013B84F8483370BD00BFA943001028
:103B0800A843001000C0012070B51A4A137803F0CA
:103B1800FF06002BFAD1184D90F848330221802473
:103B28002970147083B915480146037001F1250600
:103B380018461378002BFCD18E422870147002D0DE
:103B480011F8010FF5E770BD04461430FEF70AFCC2
:103B580070B194F8481384F849630139C9B2204612
:103B6800FEF730FE20461621BDE87040FFF784BE00
:103B7800FEF7EAFDA9430010A843001000C0012089
:103B88002DE9F041274C80462378002BFCD1264EA6
:103B98000127802508F1140037702570FEF7E2FB35
:103BA80000283DD03846FEF741FC204901F12207A4
:103BB80011F8010B237803F0FF02002BFAD1B94268
:103BC80030702570F4D11A4D88F84923B5F80D6086
:103BD8004FF6FF739E4219D0164CA4FB06342409F5
:103BE800E1B24046FEF7EEFD38B96873A8731621B6
:103BF8004046BDE8F041FFF73FBE162101FB1461C6
:103C08004046C9B2BDE8F041FFF736BE88F8482300
:103C18006A73AA7340461621BDE8F041FFF72CBE2F
:103C2800FEF792FDA9430010A843001000C0012030
:103C3800904D0010A38B2EBA2DE9F04F90F8485301
:103C48008C4F05EB850305EB4305002402EB450586
:103C580083B08946A7F80D507C72FC734DB911F0FA
:103C680040094ED14946FEF743FB484603B0BDE83C
:103C7800F08F012D0646924674D096F83C32032BFD
:103C880006F1140800F096801222012386F83E22DD
:103C980086F83F32002206F23E3386F83D22C6F807
:103CA800443303244FF6FF7B03E0A54231D30134AC
:103CB800A4B24046FDF7F2F9002862D05D45F4D180
:103CC800D6F84423937803F00703022BEFD1D37877
:103CD800002BECD05379002B5FD0674806320146A1
:103CE80007E00A2B08BF5F2301F8013C12F8013BEB
:103CF800E3B1A02B1AD00D2B01F10101F1D15F2303
:103D0800F2E729465D48FEF7ABF9284603B0BDE85F
:103D1800F08FD6F844235379002BDED100253046A6
:103D28007D73BD73FFF72CFF28469FE7002519F028
:103D380040040D70FD771ED1D6F844138B7803F03C
:103D4800070219F0020352D1022A02D1CA78002AC6
:103D58003CD1494A4A494B48FEF7D6F9002003B0FE
:103D6800BDE8F08F11F0400F2AD111F0020344D0C2
:103D78004FF6FF7581E752460521FEF771F928468F
:103D880074E7D6F844335871D6F844235379002B96
:103D9800A3D14FF6FF739D42C0D1002501233A4AB3
:103DA8003A493B48BD737B73FEF7AEF9284603B02A
:103DB800BDE8F08F282286F83F3286F83E2269E770
:103DC80034480521FEF74CF920464FE70093024698
:103DD80031493248FEF7FAFD042331487B7204F07A
:103DE800B5FA304B4FF000529A6101203EE7022AA3
:103DF80014D00023FB723B73ABE7264A0093264995
:103E08002648FEF7E3FD042325487B7204F09EFA5A
:103E1800244B4FF0005228469A6127E7CB78002BB5
:103E2800E7D086F83E320B7986F83F3206F23E2913
:103E380006F5107A2546194E09E03046254404F067
:103E480014FD05F1FE03B3F5803F2644D1D8494659
:103E58004046FEF773FA5146044602460028ECD164
:103E6800ACB2022CA7F80B407FF673AFFCF7A2FEAA
:103E78000223B2E7904D00109F4D0010648D0000A2
:103E8800AC8D0000D08D000090500010288C0000F0
:103E9800488C0000108C0000148C000000C000202A
:103EA8007040001000080240804B1B691A0740F15F
:103EB800E5807F4A7F488049DFF814C22DE9F04F3A
:103EC8004FF000437D4C7E4F7E4DDFF808E27E4E7A
:103ED800936103699BB2D2F810805FFA88F808F002
:103EE8000909B9F1010F00F09D8018F0010A76D197
:103EF80094F80090B9F1000F12D009F101095FFAA6
:103F080089F9B9F1040F84F8009009D14FF0C04B3A
:103F18004DF6FF79C1F818B084F800A0A7F8009012
:103F280018F0040FD1F8109021D1B7F800A09A45E5
:103F38001DD15FFA89FA0AF00F031AF0400F5EF8F4
:103F480023302B604FEA5A1914BF4FF480634FF0A7
:103F58008063936109F00409CAF3011349EA030372
:103F68005CF823308B619B0444BF00233B8018F02E
:103F7800100F4DD1DFF83481D8F82430532BFBD8FB
:103F8800524BD8F82480C3F804809846D8F80430F7
:103F9800112BFBD9D0F81090DFF83081D8F8043015
:103FA800202BFBD9136903F0C603C62B10D02B684E
:103FB800DFF81881C9F30D0913F80930337045F299
:103FC80055530B80D8F804303C2BFBD900230B80C9
:103FD800DFF8F880D8F80430602BFBD979E708F0CF
:103FE800C609B9F1C60F4AD0C3F30D0A2B68DFF82A
:103FF800BC9013F80A30337045F255530B80D9F84A
:104008002430932BFBD900230B8018F0100FB1D06C
:10401800264BDA686FF008010A40DA601961196105
:10402800BDE8F08F00BF00BF00BF00BF00BF00BFEA
:1040380000BFD2F810805FFA88F808F0C60ABAF113
:10404800C60F11D0C3F30D0A2B68DFF8609013F880
:104058000A30337045F255530B80D9F82430932B2E
:10406800FBD900230B80D0E718F0200F18D1237854
:10407800002B3FF47CAF84F8009078E7704718F085
:10408800200F06D12378002B3FF471AF0123237052
:104098006DE74FF080690123C2F81890237066E736
:1040A8004FF08063936184F8009060E7000001405E
:1040B800000002400004024000080240B143001022
:1040C800AE4300105400001014080240001000E035
:1040D800408D0000008B00007E4B1B691B0740F1E0
:1040E800DE807D48DFF818C22DE9F04F4FF000431D
:1040F8007A4E7B4CDFF80CE2DFF80C92794DDFF852
:104108000C828361226992B20369DBB203F0090170
:1041180001297BD013F0010753D19CF8001031B16D
:104128000131C9B204298CF8001000F0B980D6F822
:1041380000A02969BAF1000F2CD0C9B213F0020708
:1041480040F085804FEA510B01F003020BF0040B9D
:104158004FEAD10A4BEA020B634A0AF0020AC1F39A
:10416800800152F82B204AEA010112F4005F59F845
:1041780021A0CEF800A0AA6174D1002AA9BF5B4F84
:10418800C6F800A057F821103160520402D54FF448
:10419800C0628261DB062FD44E494B6A532BFCD890
:1041A800534A4B6A53605368112BFCD92369504A10
:1041B8005368202BFCD903694D4A5368602BFCD9FE
:1041C800A0E73168002932D05F0650D503F082019C
:1041D80082292CD0DEF80010C2F30D028A5C88F820
:1041E800002045F255522A803A494A6A932AFCD956
:1041F80000222A80DB06CFD5364BDA686FF008013B
:104208000A40DA6019611961BDE8F08F00BF00BF8C
:1042180000BF00BF00BF00BF00BF03693168DBB249
:1042280029B15F062CD503F08201822947D113F00A
:104238002001304A18D11778002FABD04FF0C06A50
:104248000127C0F818A011708CF80070A2E75F066B
:10425800A0D4DEF80070BA451CBFC2F30C020AF8FD
:10426800021097E7376090E70121117092E7C2F3D7
:104278000D0245F255578A5C88F800202F80B3E775
:10428800C2F30D0245F255578A5C88F800202F804A
:1042980010494A6A932AFCD900222A80AAE7704763
:1042A800DFF86CA0C5F818A013498CF80070CEF898
:1042B8000010124F29693760BA46C9B23EE7DEF8E6
:1042C8000010C2F30D028A5C88F8002045F25552AE
:1042D8002A80DDE700000140000002405400001081
:1042E800000402400008024038900000008C0000E2
:1042F800001000E0B043001000C00020580000107B
:10430800B143001058400010008B00001408024010
:1043180000800060914B1B691A0740F1D980904AD0
:1043280090499148DFF86CC22DE9F04F4FF00043F7
:104338008E4C8F4D8F4F904E93610B691FFA83F807
:1043480013695FFA83FE0EF00909B9F1010F7FD0F6
:104358001EF0010955D123782BB10133DBB2042BB0
:10436800237000F0B680DFF820B20369DBF800A004
:10437800BAF1000F23D05FFA83F91EF0020F40F064
:104388008C8019F0400F1CBF4FF4C063936119F083
:10439800040F40F08E80C9F3C10809F0030A774B77
:1043A8005CF82AA053F82830C0F818A019F0200F9C
:1043B8002B601CBF724B53F82830CBF800301EF02E
:1043C800100F3BD1DFF894E1DEF82430532BFBD8F3
:1043D8006C4BDEF824E0C3F804E09E46DEF80430B7
:1043E800112BFBD90B69DFF89CE1DEF80430202B98
:1043F800FBD91369DFF88CE1DEF80430602BFBD9B8
:104408009BE70EF04409B9F1440F70D05E4B1B686E
:10441800002BD4D0C8F30C0845F2555913F80830CE
:10442800DFF838813370A0F80090D8F82430932B47
:10443800FBD9002303801EF0100FC3D0474BDA6866
:104448006FF008010A40DA6019611961BDE8F08F60
:1044580000BF00BF00BF00BF00BF00BF00BF13699F
:104468005FFA83FE0EF0440ABAF1440F2AD0464B95
:104478001B68002BA3D0C8F30C0845F2555913F854
:104488000830DFF8D8803370A0F80090D8F82430CE
:10449800932BFBD900230380CDE70EF04403442B74
:1044A8008DD02B689A451CBFC8F30C080AF80890F1
:1044B80085E700234FF46048C0F81880CBF8003037
:1044C8002B607CE71B0618D42B68002BD3D176E72A
:1044D80070472E4B836184F800900369DFF8A8B019
:1044E8002F605FFA83F9CBF80070BA4645E71B06E0
:1044F80016D42B68002B8DD161E71EF02008244BC1
:1045080028D193F800A0BAF1000F3FF458AF4FF04C
:10451800C06AC2F818A083F8008084F800904EE7BB
:104528001EF020081A4B10D193F80090B9F1000F33
:104538003FF445AF4FF0C06A4FF00109C2F818A028
:1045480083F8008084F8009039E74FF0010883F879
:10455800008034E783F8009031E700BF0000014095
:10456800000002400004024000080240B14300106D
:104578005840001000C0002014080240008B0000C2
:10458800008C0000001000E0540000100080006063
:10459800B0430010648A0000A24B1B691B0740F15E
:1045A800F180A149A148DFF8A4C22DE9F04F4FF0EE
:1045B80000439F4C9F4DDFF898E29F4FDFF89482AD
:1045C8009E4E8B6122691FFA82FA0B69DBB203F0F7
:1045D8000909B9F1010F00F08B8013F0010B68D1C4
:1045E80095F80090B9F1000F10D009F101095FFAB0
:1045F80089F9B9F1040F85F8009007D14FF0020945
:1046080087F80090C0F8188085F800B013F0020F02
:10461800D0F8109034D102F002023A705CF82220EF
:104628008261DB063BD4DFF8FC91D9F82430532BA8
:10463800FBD8834AD9F8243053605368112BFCD92E
:10464800D4F810907E4A5368202BFCD90B6903F0EC
:10465800C003C02B0FD07B4B794A1B68C9F30D09E7
:1046680013F80930337045F25553038053683C2BD7
:10467800FCD900230380724A5368602BFCD9A1E758
:104688005A07CED41AF0800F08BF0AF07F0A4FF4F9
:10469800C06208BF0EF80A90DB068A61C3D5614B79
:1046A800DA686FF008010A40DA6019611961BDE83B
:1046B800F08F03F0C209B9F1C20F64D0DFF884911A
:1046C800CAF30D0AD9F8009019F80A9086F80090F4
:1046D80013F0020F45F25559A0F8009039D0DFF8D1
:1046E8004491D9F82420932AFBD90022028098E724
:1046F80000BF00BF00BF00BF00BF00BF00BF0B6905
:10470800DBB203F0C20BBBF1C20F2CD0DFF834913F
:10471800CAF30D0AD9F8009019F80A9086F80090A3
:1047280013F0020F45F25559A0F8009008D102F095
:10473800020242F0010252B23A705CF82220826111
:10474800DFF8E090D9F82420932AFBD900220280D0
:1047580067E702F0020242F0010252B23A705CF8D6
:1047680022208261BBE75A0731D41AF0800F4FD15B
:104778000AF07F0A45F255521EF80A9086F8009012
:104788000280DDE770475A070CD41AF0800F36D143
:104798000AF07F0A45F255521EF80A9086F80090F2
:1047A80002809CE713F02009274A23D192F800A041
:1047B800BAF1000F3FF435AF4FF0C06B4FF0010A6C
:1047C800C1F818B082F8009085F800A029E713F026
:1047D800200A1D4A10D192F800B0BBF1000F3FF437
:1047E80020AF4FF0C06BC1F818B082F800A085F870
:1047F800009016E74FF0010982F8009011E73A7827
:104808009201D2B245F255593270A0F8009066E78D
:104818003A789201D2B245F255593270A0F8009018
:104828008EE700BF0000014000000240000802407F
:1048380000040240B1430010EC4500101408024087
:10484800001000E054000010B0430010048F000076
:104858005800001000800060AB4B1A69110740F146
:104868000D81AA48DFF8CCC22DE9F04F4FF0004285
:10487800A74DA84CA84FDFF8C082DFF8C0E2A74ECA
:1048880082612A691FFA82FA0169C9B201F009092D
:10489800B9F1010F00F08680CA073DD501F0C002CA
:1048A800C02A00F0A580DFF87C92CAF30D02D9F87F
:1048B800009019F80220327045F2555222805A6A47
:1048C800932AFCD900222280CA0643D45A6A532A62
:1048D800FCD893495A6A4A604A68112AFCD92A695D
:1048E80092B20169C9B201F0C009B9F1C00F3BD059
:1048F8008C49C2F30D0209688A5C327045F2555240
:10490800228087494A683C2AFCD9002222808449AF
:104918004A68602AFCD9B4E75A6A812AFCD9226914
:1049280011F0020B5FFA82F935D15FFA8AF2022A96
:1049380000F0CC800A2A00F0AC80002AC4D109F02B
:104948003F09794ADFF8DCA152F82920CAF800208B
:10495800CA06BBD56C4BDA686FF008010A40DA600A
:1049680019611961BDE8F08F11F0020937D14DF6D0
:1049780009618A4200F083804DF60A618A42C6D1F5
:104988006A4A6B491278D2B2327045F25552228087
:1049980081F80090B5E74A075CBF5FFA8AF207F82A
:1049A800029091E700BF00BF00BF00BF00BF00BF7B
:1049B80000BF0169C9B201F0C002C02A35D0DFF8D2
:1049C8006491CAF30D02D9F8009019F802203270E8
:1049D80045F2555222805A6A932AFCD972E7490750
:1049E80095D4D2B245F25551BA5C3270218088E72D
:1049F80011F0020236D14DF60969CA455AD04DF672
:104A08000A69CA457FF460AFDFF82091DFF820A17A
:104A180099F800905FFA89F986F8009045F255599F
:104A2800A4F800908AF8002049E711F0020235D175
:104A38004DF60969CA455BD04DF60A69CA457FF447
:104A480043AFDFF8E890DFF8E8A099F800905FFA44
:104A580089F986F8009045F25559A4F800908AF82B
:104A68000020B8E74A073FF52FAF5FFA8AF245F210
:104A78005559BA5C3270A4F8009020E770472C4A68
:104A880012789CF800100A4345F255513270218083
:104A980037E78EF800908CF800B015E74A073FF525
:104AA80013AF5FFA8AF245F25559BA5C3270A4F82E
:104AB800009090E71E4A12789CF8009042EA09029A
:104AC80045F255593270A4F80090F8E64FEA591AA1
:104AD8000AF0040A09F0020BC9F380024AEA0B0A39
:104AE80022EA090242EA0A0258F82220A261EBE609
:104AF8000F4A12789CF8009042EA090245F255598B
:104B08003270A4F8009066E70000014000000240FF
:104B18000004024000080240580000101408024037
:104B2800001000E054000010008B0000A8430010A3
:104B3800A943001008000010208D0000AA430010AF
:104B48001049114BD1F8882042F4700210B4C1F812
:104B580088201A680D4C002042F001021A60986003
:104B68001A6822F0847222F480321A605C601A6833
:104B78004FF0005422F480221A60D8608C605DF8EF
:104B8800044B704700ED00E000380240103000246C
:104B980008B5084B5B69DB0600D408BD064BDA682C
:104BA8006FF008010A40DA601961FCF791FEFCF722
:104BB800CFFE00BF003C0140000001402DE9F04756
:104BC800AD4DAE4ADFF8D8E2AD4EAE4BDFF8D8C2F5
:104BD800AD48AE4901272F70D76807EA0E070024B1
:104BE80047F4AA073480D760DF6827F0300747F01A
:104BF8001007DF60976807EA0E0747EA0C07976017
:104C08009F6827F0300747F020079F60576A3F0DDD
:104C18003F0538435062106800EA0E0040EA0C0075
:104C280010601A6A22F4706242F440621A621A68CA
:104C380022F0300242F020021A604B6C43F4006309
:104C480084B04B64BFF34F8F4A6A9148914B42F44A
:104C580000624A624A6A22F400624A620268D22109
:104C680042F00302026059601A469C601368DB0335
:104C7800FCD5874B874C4FF4BB71596041F26801F2
:104C88000023516093602368DF03FCD500231A4694
:104C980019461846FBF79EFA90B37F4B63604FF0B6
:104CA800000AC4F808A06B4601224FF4D571082009
:104CB800FBF790FA30B1009BC3F30B03B3F5D57F34
:104CC80000F0F6806B4601227449DFF8E081A920E4
:104CD800FBF780FA00284FD1012488F800406F4F75
:104CE800DFF8B0916B46012239462046FBF772FA8D
:104CF80010B1009B002B4ADBD9F80030DB03F1D55B
:104D08000123634A2B70536823F480735360536BF9
:104D180013F40063FBD110685E4920F00300D2242D
:104D280010604C600A468B601368DB03FCD5574A59
:104D3800536C23F400635364BFF34F8FA2F54052C2
:104D4800574C10684F4B20401060516A090D0905F7
:104D58005162186820F030001860186A20F47060FA
:104D68001862D1682140D160DA6822F03002DA6036
:104D7800012004B0BDE8F087022388F80030A92498
:104D8800ADE758004CBF0C22042288F80020454C9F
:104D9800190C4FEA136C1F0A022284F8233084F896
:104DA8002110104684F820C06B46002184F8227038
:104DB800FBF710FA0028A3D0274604F1100CE946A7
:104DC8006A4652F8043BE374180E190C1B0A207447
:104DD8006174A3740434A445F3D198F8003013F037
:104DE800060F4FF001026B467ED14FF4803103204D
:104DF800FBF7F0F9002883D0012333804FF4803A81
:104E08006B46022251460920FBF7E4F900283FF4DB
:104E180077AF59F8043BFB70190E1A0C1B0A39704E
:104E28007A70BB700437BC42F3D151466B460122FD
:104E38000720FBF7CFF900283FF462AF98F800602D
:104E480030075ED5124B16F0060F5C6869D1114920
:104E58000F4A24F0FF0343F00303BD2400205360EE
:104E68004C600A4688601368D903FCD52B7823F078
:104E780001032B7000207CE70700001000080240A7
:104E88004C000010000C0240CCCC0C000038024052
:104E9800002C014010E000E0D01B50000080FF0013
:104EA800FFFF00FC280000100000AA024E000010BE
:104EB800DFF89C80244FDFF89C9088F800A0042439
:104EC80001226B463946A920FBF784F9621E18B106
:104ED800009B002BFFF655AFD9F80030D903EFD56A
:104EE80012F0FF04ECD10BE700210320FBF772F965
:104EF80000283FF405AF009B1A0C32804FEA024AA3
:104F08007EE76B4601224FF400711020FBF762F92F
:104F180000283FF4F5AE0D4A009B1A427FF4F0AE2C
:104F280090E76B46012202218620FBF753F90028FF
:104F38003FF4E6AE054A009B1A427FF4E1AE24F442
:104F4800C05444F4006482E70080FF400000F9FD8B
:104F58004E00001010E000E0014B1878704700BFC9
:104F680007000010F0B5374C60691D46013B80F41E
:104F780000507E2B83B0606155D8334B1B78D8071F
:104F88004BD4324B1B781B0716460F4658BF5602A8
:104F9800FDF72CFB002843D02D4B2E4A012D4FF056
:104FA80092014FEA4524D96218BF12205A6208BFFD
:104FB80011209C62314601AB01220546FBF70AF934
:104FC80000282DD0244B0198184029D1204A40F2BE
:104FD8003A739363D36A43F00103D36240F22A2100
:104FE80001E09E0222D4536B0B42FAD0844206465B
:104FF80024D9174B5A6B910204D5D3F880205A6BE9
:105008009202FAD401AB012200210C20FBF7E2F84E
:10501800B44294BF0020012000E0032003B0F0BD9B
:10502800012003B0F0BD042003B0F0BD0430D2F875
:10503800803047F8043B8442D5D12646122DE7D16B
:10504800D7E700BF00080240070000104E0000101C
:10505800002C014000366E01000058C02DE9F047D1
:105068004F4D68691C46013B80F400507E2B82B08E
:1050780068617AD84B4B1B78D8076ED44A4D95F89F
:10508800008018F0080F17460E4608BF5702FDF7B4
:10509800ADFA002865D0012C6BD018F0060F0DF181
:1050A80004090CBF172097204B4601222146FBF725
:1050B80091F8002855D03D4A019B1A4251D1192038
:1050C8008246DFF8F0803A4A90236402C8F82C3010
:1050D8003946C8F824204B460122C8F82840FBF777
:1050E80079F800283DD0314A019B1A4239D140F263
:1050F8003A73C8F8383072B63346043653F8200B82
:10510800BFF34F8FD8F82C2042F00102C8F82C20AA
:105118004146C8F8800056F8042BC1F88020B342F5
:10512800F9D124481A46202640F21A27436B3B42FD
:1051380003F4885106D1DB03F8D4B4421ED8B1F584
:10514800807FF3D162B6B44222D8BAF1190F1BD0CE
:10515800B44294BF0020012000E0032002B0BDE863
:10516800F087012002B0BDE8F087042002B0BDE856
:10517800F087182082460DF10409A2E71368C0F8E9
:10518800803004360432D1E72B7813F0060FDFD0D5
:105198004B46012200210C20FBF71CF8D8E700BF82
:1051A80000080240070000104E000010000058C020
:1051B80000366E01002C0140044B1B78DB0703D43A
:1051C800081C18BF01207047032070470700001013
:1051D8000248034903689B6A184700BF1847001034
:1051E800A90200002DE9F04FB34B1A6842F480324F
:1051F80093B01A601A689503FCD51A6C42F0805275
:105208001A64BFF34F8FAD49AD4C0A68AA4842F4FF
:1052180080420A609A6842F414429A605C601A6894
:1052280042F080721A6003689C01FCD5A54BA24E1F
:1052380040F205721A60836823F00E0343F00203FC
:105248008360B3681907FCD59F49A04BCA68A04C76
:105258004FF0000842F08072CA60C3F804801A68F0
:105268004FF0010B42EA0B021A60C4F80480C4F83C
:105278000880C4F800B0736C43F480437364BFF3D0
:105288004F8F336B43F00F033363BFF34F8F336B91
:1052980043F480533363BFF34F8F8E498E4D8B6831
:1052A8008E4FDFF87CA28E4ADFF8789243EA0B0330
:1052B8008B60AB688B49F96043F07073AB606B6AC5
:1052C8008949796023F47F2343F42A236B622B688E
:1052D8008649396123F0707343F020732B60702185
:1052E8003A60782308228AF84313CAF80820A7F8F6
:1052F8005E307F4B87F860205846C7E91533FCF7C6
:1053080025F93B6858469B6898477A4B4FF46042AA
:10531800C3F80080C3F81480C3F80880C3F80C8071
:10532800A9F80080C9F81820D9F8043043F440439C
:10533800C9F80430D9F8003023F07C434FF4C06238
:1053480043F0A843C9F80030AA616B6813436B6047
:105358002B6823F4701343F4A0132B60FCF7B8FAFE
:105368002B6823F0404343F080432B60736C43EA7F
:105378000B037364BFF34F8F6A6A5F4B5F486049E2
:10538800604EDFF8A4C122F00F0242EA0B026A6203
:105398002A6822F4403242F400322A60C3F8288096
:1053A8009A6922F4407222F0030242F4007242EA3F
:1053B8000B029A611A6A22F0AA0242F002021A62E9
:1053C8009A6822F0770242F050029A609A6842F096
:1053D80004029A601A6A42F011021A621A6842EAD2
:1053E8000B021A604322DA6394221A64DA6922F4FF
:1053F800E04222F0700242F4805242F01002DA6178
:105408004FF00062C3F80C808AF81B83CAF80020AA
:105418002B683D4A23F470632B60EB6823F47063B8
:1054280043F42063EB60C36823F00F03C3600B6889
:10543800364843F010030B608B6843F010038B6011
:10544800CB6823F01003CB6010234B61F0238AF85C
:105458000A334FF48063CAF80030AC23C6F800C0A2
:105468004546C9F81800C8461A6001222849294843
:1054780002F042FC4FF00059C8F81890002855D0A7
:1054880065B91D4BDB681A0740F18080124B224931
:1054980022484FF000429A61FDF7D8F84FF47A722B
:1054A80045F20820002101256060A1602368DB0324
:1054B800FCD5013AF8D1D8E7003802400070004026
:1054C80008544007003C0240F0ED00E0001000E006
:1054D80010E000E0003002400000024018470010D1
:1054E800D8900000FD170000B1170000F906000071
:1054F80098460010000402400000014000380140B6
:10550800003C0140540000101D1D00000080006098
:10551800908A0000B4430010188F0000408F0000EC
:1055280000E100E00008024000C00008AC4802F0BA
:105538001FFFC8F818900028A2D1FBF7E3FC002849
:1055480000F0BD86A74D6B7A042B40F010873B68AE
:1055580000209B6898473B6800205B689847A24BEF
:105568000822C3F88820BFF34F8FBFF36F8F6B7A81
:10557800013B072B00F23985DFE813F07805F805C1
:105588007F06320537050F0554010B00FCF768F953
:105598007CE7964B964CDA68DFF88092DFF880B2A9
:1055A80022F00802DA606FF008021A61FCF790F93D
:1055B800904A914B4FF4604191614FF000429A61DB
:1055C8008E4B01936B7A042B4FD08D4D8D4E4FF03F
:1055D800A0474FF0800A2B6813B19BF800300BB33B
:1055E8002378002BF7D12378002BFCD199F80020E1
:1055F800D2B2402323703368B3F5FF7FFBD8BB6872
:1056080023F00103BB60BFF34F8F336833687E48D4
:10561800591CC2543160BFF34F8FBB6843F001037C
:10562800BB60D6E72B68002BFCD0BB6823F00103D6
:10563800BB60BFF34F8F2B687448013B1A46411C6F
:1056480090F800802B6003F01BF9BFF34F8FBB6805
:1056580043F00103BB609BF80030002BFBD1019B9A
:1056680083F800808BF800A0BAE70022684B114647
:105678001A700132102A59709970D970197103F291
:105688000313F5D107A82A22002103F012F9614B70
:10569800039300230293FBF7E7FB822847D040F2ED
:1056A800EA80842800F00881C0F02381852800F072
:1056B800F680862840F0E780029B002B00F04181AD
:1056C8005B78002B00F03D8102988278013B511CE9
:1056D8000244DBB2817055794370002B40F03C8165
:1056E80003780F2B00F05F83029E4B48F11CFCF7F8
:1056F80025FE00237070B370002840F02D819BF8C0
:105708000030002BFBD10199802384220A708BF88A
:1057180000309BF80030002B40F02781019A80234D
:1057280015708BF80030FBF79FFB8228B7D12378E0
:10573800002BFCD199F80050EDB2402305F00F057D
:1057480005EBC5122370324B05EB42052B4402933F
:105758002378002BFCD199F80000C0B240212170B9
:1057680068B107AB1E181A462378002BFCD199F8AC
:105778000030DBB202F8013BB2422170F4D112AB27
:105788001844029A002300F82C3C5370937005A922
:1057980007A8FBF79FFA9DF81830002B40F0EF8020
:1057A8009DF81910042900F0EA809DF81A30572B4B
:1057B80000F0E580164B5B5D0F2B00F00683059823
:1057C800FCF706FE002840F02A839BF80030002BE7
:1057D800FBD10199822280230A708BF800305AE7A6
:1057E800608D0000904D001000E100E000000140D5
:1057F800080000100008024000000240A843001002
:105808007C490010804B0010804900107C47001034
:10581800582000105C40001070400010AA4300108F
:10582800A9430010B84BDA686FF008010A40DA6043
:105838001961FCF74DF8B549B54AB6488861B64BC9
:105848004FF00041916145F208244FF49672002010
:105858005C6098601968C903FCD5013AF8D1AB4B74
:10586800AE4CDFF8D892DFF8D8B24FF440429A61D4
:10587800AB4B0193A6E6802800F08B8000F20A81EA
:1058880000283FF408AF9BF8003003F0FF02002B1C
:10589800F9D1019980230A708BF80030FBE69BF858
:1058A800003003F0FF02002BF9D101990292802306
:1058B8000A708BF80030EEE62378002BFCD199F8BB
:1058C8000030DBB2402203F00F0303EBC311227058
:1058D800944A03EB4103D31802939BF8003003F07A
:1058E800FF02002BF9D1019980230A708BF8003050
:1058F800D1E6237803F0FF02002BFAD199F80030A3
:10590800DBB203F00F0303EBC31103EB4103854D37
:10591800E95C4020EB180F292070029300F0D98031
:10592800029B5A709A70DA701A719BF8003003F073
:10593800FF02002BF9D1019980230A708BF80030FF
:10594800A9E69BF80030002BFBD101998322802324
:105958000A708BF800309EE69BF80030002BFBD1D4
:10596800019A802313708BF800309BF80030002BCD
:10597800FBD1019A802315708BF80030D3E69BF891
:105988000030002B3FF425AF9BF80030002BF6D1F8
:105998001FE72378002BFCD199F80000C0B2402102
:1059A800217068B107AB1D181A462378002BFCD16B
:1059B80099F80030DBB202F8013BAA422170F4D119
:1059C80012AB1844002300F82C3C9DF81C30242B03
:1059D80000F08C8005A907A8FBF77CF99DF8183022
:1059E800002B43D19DF81910002940F0AB8002210B
:1059F8008DF819100598FCF7EBFC002840D00399A6
:105A0800DFF83481D1F84433474EDA7881F83E2202
:105A18001B7981F83F3200274B469A46A1463C46FF
:105A280014E0022D40F24282023DEDB2039B3F4951
:105A3800B3F840722A46304602F017FF63199CB249
:105A480043F6027294422E4400F2128241463848CC
:105A5800FCF774FC0546002800F09881002CE0D083
:105A68002A463449304602F000FFE7E79BF8003049
:105A7800002B3FF4AEAE9BF80030002BF6D1A8E621
:105A88009BF80030002B3FF4A4AE9BF80030002BAD
:105A9800F6D19EE6284F244E07F1020A0025394622
:105AA8002348FCF74BFC804678B1304642465146C5
:105AB800454402F0DAFEADB243F602739D42464415
:105AC800EDD92846FBF76EF9E5E52846FBF74AF9D4
