:100000000000011001B5000051B5000051B500001D
:1000100051B5000051B5000051B5000000000000CE
:1000200000000000000000000000000051B50000CA
:1000300051B500000000000051B5000051B50000AE
:1000400051B5000051B5000051B5000051B5000098
:1000500051B5000051B5000051B5000051B5000088
:1000600051B5000051B500002D77000051B50000DA
:1000700051B5000051B5000051B5000051B5000068
:1000800051B5000051B5000051B5000051B5000058
:1000900051B5000051B5000051B5000051B5000048
:1000A00051B5000051B5000051B5000051B5000038
:1000B00051B5000051B5000051B5000051B5000028
:1000C00051B5000051B5000051B5000051B5000018
:1000D00051B5000051B5000051B5000051B5000008
:1000E00051B5000051B500000000000051B50000FE
:1000F00051B5000051B5000051B5000051B50000E8
:1001000051B5000051B5000051B5000051B50000D7
:1001100051B5000051B5000051B5000051B50000C7
:1001200051B5000051B5000051B5000051B50000B7
:1001300051B5000051B5000051B5000051B50000A7
:1001400000000000000000000000000000000000AF
:1001500051B5000051B5000051B5000051B5000087
:1001600051B5000051B5000051B5000051B5000077
:1001700051B5000051B5000051B5000051B5000067
:1001800051B5000051B5000051B5000051B5000057
:1001900051B5000051B5000051B5000051B5000047
:1001A00051B5000051B5000051B5000051B5000037
:1001B00051B5000051B5000051B5000051B5000027
:1001C00051B5000051B5000051B5000051B5000017
:1001D00051B50000B17D000051B5000051B50000DF
:1001E00051B5000051B5000051B5000051B50000F7
:1001F00051B5000051B5000051B5000051B50000E7
:1002000051B5000051B5000051B5000051B50000D6
:1002100051B5000051B5000051B5000051B50000C6
:1002200051B5000051B5000051B5000000000000BC
:1002300051B5000051B500000000000051B50000AC
:1002400051B5000051B5000051B5000051B5000096
:1002500051B5000051B5000051B5000051B5000086
:1002600051B5000051B5000051B5000051B5000076
:1002700051B5000051B5000051B50000000000006C
:1002800051B5000051B5000051B50000000000005C
:080290000000000051B5000060
:1002980010B5054C237833B9044B13B10448AFF3B8
:1002A80000800123237010BD0C0000100000000026
:1002B80048B6000008B5034B1BB103490348AFF328
:1002C800008008BD000000001000001048B60000C3
:1002D80010F8012B11F8013B012A28BF9A42F7D0E8
:1002E800D01A704710F0010F2749284A70B414BF7C
:1002F80002254FF4003510F0020F254C14BF0126DB
:100308004FF4803610F0040F45EA060514BF4FF489
:1003180000734FF0007310F0080FA56114BF4FF47D
:1003280080764FF0807610F0100F43EA060314BF72
:1003380080254FF4000510F0200F43EA050314BF91
:1003480040254FF4800510F0400F43EA0503114D96
:1003580014BF20264FF4001610F0800F43EA06035E
:1003680014BF20204FF400108B619061206800F0CA
:100378000F0020600B682B400B60136803F4406388
:1003880070BC1360704700BF00040258000C02588C
:100398000010025800FC0F00F8B515460206044686
:1003A8000F461E462DD4012D04F03F0436D0022DF1
:1003B80014BF44F4805044F498501E4B1E491A460A
:1003C80099639F60D860536B9904FCD4ADB1194A06
:1003D800536B13F0450FFBD05A071DD4DB0705D527
:1003E800012C18BF0C2C01D0292C15D1114B022D32
:1003F8005A69326015D00120F8BD506BC0F3C010A7
:10040800F8BD0E490122372009880904FFF7C4FF07
:1004180010B133689806C6D40020F8BD44F488505B
:10042800CBE79A6901207260DA69B2601B6AF360EF
:10043800F8BD00BF00240248C500C01F4C000010D2
:1004480038B503680D4604468878DB6898476B889A
:10045800002B14BF0323022384F8623038BD00BF89
:1004680070B5044616460D46A9B10B1F022B09D9D3
:1004780004EB85035B6913B3324629462046BDE881
:100488007040184702F0070300EB83035B6B002BF7
:10049800EED09847ECE70368022284F86310084618
:1004A80084F8622084F8611094F860201B699847EA
:1004B800034A236828466263DB689847D8E770BD1B
:1004C800F9130000034A136823F4FE6343EA00109B
:1004D800106070470008084070B4164E0022B46AD5
:1004E80004EB1444A4B202F14003013206EB830387
:1004F8005B6803EB13459BB2ADB2B3F5007F02D244
:10050800AC4238BF2C46032AEDD10331891010299B
:10051800B8BF10210B19B3F5A07F08D88300064A8D
:1005280044EA014401201A44546070BC704700201A
:1005380070BC704700000840FC00084000F07F00D5
:10054800294B4FF001114201F0B501FA00F5D969C4
:10055800264E840121EA0501254F04F4F864254D4F
:10056800D96102EB060C9359394602EB050E23F4C8
:10057800004393513B6923F4F86343F0200323437A
:100588003B610B699B06FCD49359002B0CDBFF23C2
:10059800CCF8083078B9535923F4004353515359D0
:1005A800FF23CEF80830F0BDD0B14FF08041FF23D3
:1005B8009151CCF8083000F101110F4B800049022D
:1005C80003445960535923F4004353515359002BA2
:1005D800E6DA4FF080435351FF23CEF80830F0BDE0
:1005E800FF23CCF80830D6E7000808400009084087
:1005F80000000840000B0840FC000840194BF0B40C
:100608005C69E4062BD5DC6900F07F0004F00F0478
:10061800844224D1186AC0F30A10F0B10025124FA1
:1006280006E0043A41F8043B92B20435854214D2FC
:10063800032A3B68F5D8002AF7D0013A4C1E92B23B
:100648008E1804F8013FA6424FEA1323F9D1043566
:10065800531C002285421944EAD3F0BC70474FF07E
:10066800FF30FAE70000084000100840F0B500F03D
:100678007F04174FD31C174E4FEA441C9B100CEBFA
:10068800070E06EB0436DEF818509D421DD31046BF
:10069800BCB902F5002200250F4CCEF81050CEF858
:1006A80010205CF80720144044F004444CF807403C
:1006B80033B101EB830251F8043B8A423360FAD12B
:1006C800F0BD5CF80740002CE3DA4FF0FF30F0BDD6
:1006D8000009084000100840FFFFDF7B024B9868C4
:1006E800C0F30D20704700BF000808402DE9F0470F
:1006F80007460E460024474DDFF828814FF48059FD
:100708006B6913F480511ED1980454D45A0356D4FB
:10071800D80669D5EC69C4F3434304F00F04023BDF
:10072800042B0BD8DFE803F02503030A2C00620131
:1007380052F8083043F0044342F808302B6A6B69DA
:1007480013F48051E0D00020C5F81490FFF7F6FEAE
:100758000120FFF7F3FE0220FFF7F0FE0320FFF76A
:10076800EDFE2B6943F010032B612B69DB06FCD4EB
:10077800C6E70521E2B238463346BDE8F0471847D8
:10078800254A264B02EB44121269134063B12149F2
:100798000B690A4623F4F86343F0200343EA841301
:1007A8000B6113699906FCD4E2B238463346062138
:1007B800BDE8F04718474FF400536B61DAE7164875
:1007C800032C00EB441013D88368DB0717D4144BB1
:1007D80023445B0103E09A682033D5070FD4013422
:1007E8001846042CF7D103E01A0503D4002B0CDBC0
:1007F800BDE8F0874FF4006302216B61BAE701237B
:1008080044F0800404218360B4E74FF000430321DF
:100818006B61AFE700000840000908400000F81FBE
:1008280049400002000B08401F4B20491A6830B4A9
:1008380004461F4D0420D3B201384FEA122281EA40
:10084800030105FB01F1F6D11A4B0420184D1A6873
:10085800D3B201384FEA122281EA030105FB01F104
:10086800F6D1154B0420124D1A68D3B201384FEA5D
:10087800122281EA030105FB01F1F6D125461C226B
:1008880021FA02F3043A03F00F030A2B34BF302095
:100898003720034425F8023F131DF1D140F21233EB
:1008A8001220238030BC704700E8F11FC59D1C81D1
:1008B8009301000104E8F11F08E8F11F4088030ACA
:1008C800022B10B417D0032B0DD0012B03D000201E
:1008D8005DF8044B70471224084B0B60012014800C
:1008E8005DF8044B7047C0B20228F0D8044B53F8A7
:1008F80020301C78F1E7034B4B24EEE77CBA00006C
:1009080090BA0000FCB70000F0B472B6C0B2204C38
:10091800204E214D0B286660656023D91C4C206948
:10092800C007FCD4E06820F0060040F00200E06058
:1009380063B11546164855F8044B0E1D0C60016945
:10094800C907FCD4AC1A3146A342F4D8104BDA6874
:1009580022F00202DA60DA6842F00102DA6062B676
:10096800F0BC70472569ED07FCD4E76800020B4E20
:1009780000F4E060064D3E4046F024063043E06057
:10098800E06840F08000E0602869C407FCD4C5E74F
:100998000020005223016745AB89EFCDC5F8FFFF62
:1009A800054B06491A6810B40C68511CA05419600C
:1009B8005DF8044B704700BF5000001094460010CB
:1009C800154B98421ED013D9144B98421CD007D906
:1009D800B0F5482F02D0124B984207D10320704738
:1009E800104B98420ED0104B98420DD00020704703
:1009F8000E4B984206D009D9B0F5403F02D00C4BB7
:100A08009842F3D10120704702207047A3F2AB232C
:100A18009842EBD1F6E700BF00220300565B0500C1
:100A2800808C0C002225030000560500ABAD0200A7
:100A380000030300F8B5037ADB0600F1E58000F156
:100A4800160500F21516FE242A4605E02E2908BFD1
:100A58001C46B24200F0DA80531B12F8011BDBB2CD
:100A68000029F3D11B1B032B40F3CC8005EB040CAE
:100A78007C4964466246033412F8013F11F8016B61
:100A8800A3F16105A3F12007192D0CD8BE420CD1A2
:100A9800A242F1D100684FF6FC73033898428CBF2C
:100AA800FF200220F8BDB342F2D06F49624604E04D
:100AB800B7420ED1A24200F0AB8012F8013F11F804
:100AC800016BA3F16105A3F12007192DF0D9B342F9
:100AD800F0D06649624604E0AF420ED1A24200F06F
:100AE8009D8012F8013F11F8015BA3F16106A3F1A3
:100AF8002007192EF0D9AB42F0D05D49624604E0D8
:100B0800B7420ED1A24200F08F8012F8013F11F8CF
:100B1800016BA3F16105A3F12007192DF0D9B342A8
:100B2800F0D05449624603E0B7420DD1A2427BD0CF
:100B380012F8013F11F8016BA3F16105A3F1200739
:100B4800192DF1D9B342F1D04B49634603E0AF42C6
:100B58000DD1A34268D013F8012F11F8015BA2F15F
:100B68006106A2F12007192EF1D9AA42F1D0434912
:100B7800634603E0AF420DD1A3425DD013F8012FC5
:100B880011F8015BA2F16106A2F12007192EF1D933
:100B9800AA42F1D03A49634603E0AE420DD1A342DE
:100BA8004AD013F8012F11F8015BA2F16107A2F1F5
:100BB8002006192FF1D9AA42F1D03249634603E041
:100BC800AE420DD1A3423ED013F8012F11F8015BBC
:100BD800A2F16107A2F12006192FF1D9AA42F1D09A
:100BE800294A03E08D420DD1A44533D01CF8013FBA
:100BF80012F8011BA3F16106A3F12005192EF1D902
:100C08008B42F1D0FF20F8BD0020F8BDFF2329E773
:100C180003681B2B34BFFF200320F8BD0368412B5A
:100C280034BFFF200120F8BD0068FFF7C9FE002887
:100C38000CBFFF200420F8BD0368B3F5005F14BFA4
:100C4800FF200620F8BD0368B3F5803F14BFFF20DE
:100C5800FD20F8BD0368B3F5823F14BFFF20FE20D6
:100C6800F8BD00BFC4BD0000C0BD0000BCBD000091
:100C7800B8BD0000B4BD0000B0BD0000ACBD0000B0
:100C8800A8BD0000A4BD0000A0BD0000044B402288
:100C9800044805499A619861044A0B6813607047D3
:100CA8000010025880000001540000105840001045
:100CB800084B40210848094A30B499614FF0C07583
:100CC8004FF080444DF6FF719D618461118030BC06
:100CD800704700BF00100258000C0258AE430010C5
:100CE800024B4021024A99619A61704700100258EC
:100CF8008000000110B4064B40244FF0C070054A34
:100D080005499C6198615DF8044B1160704700BF0C
:100D1800001002585840001000C00020FFF7E0BF44
:100D2800064B40210648074A30B49961064D074CE6
:100D380007499D610460116030BC7047001002587B
:100D480058400010540000100001800000C000202E
:100D580058000010024B4021024A99619A6170477D
:100D68000010025800018000034B40214FF0C07270
:100D780099619A61704700BF001002580D4A10B47B
:100D88001378002BFCD10C48032480210B4B0470F2
:100D980011701A78002AFCD109490A7840221A7081
:100DA8001A78002AFCD10A7840221A705DF8044BA0
:100DB800704700BFA9430010A843001008000010A6
:100DC800AA4300104069044B186009B90368184722
:100DD80043680121184700BFF045001030B444694A
:100DE800064D91F82C3020462C601343246991F865
:100DF8002D201946234630BC184700BFF045001087
:100E080008B54369034918461A680B6090470020E3
:100E180008BD00BFF04500100F4AF0B4137803F086
:100E2800FF05002BFAD10D4E802328460C4C314685
:100E3800357002271E4601F12505277013701378B7
:100E4800002BFCD1A9422070167002D011F8010FB6
:100E5800F5E7F0BC704700BFA943001000C00120AF
:100E6800A8430010FFF7D8BF30B44A1E051D0F3144
:100E780012F8013F15F8014F2A2B10D03F2B00D153
:100E88005CB9A4F1A000B0FA80F04009002B18BFAB
:100E9800002028B9A34203D10BB18A42E8D101202E
:100EA80030BC7047F0B4002402460C7102E03A2BC3
:100EB80031D01C4612F8013B002BF8D10023086002
:100EC800012703264B711C468B714FF0020C0378E7
:100ED8000425421C33B12C2B06D010460378421C43
:100EE800002BF8D1F0BC704702F8014C4B795BB984
:100EF8001378532B19D0552B14D04C2B10460CBFFC
:100F08002B4663464B71E9E78B79002BE5D1437893
:100F1800F0BC8B717047303CE4B2092C08D80C71D6
:100F28001046CBE74E711046D8E74F711046D5E70B
:100F38001046C3E70D4B10B41A78002AFCD1802262
:100F48000B49C4B20A701A701A78002AFCD18022A0
:100F5800C0F307200C701A701A78002AFCD180227E
:100F680008701A705DF8044B704700BFA943001061
:100F7800A84300100D4B30B41A78002AFCD10C4954
:100F880081248022C5B20C701A701A78002AFCD10C
:100F98008022C0F307200D701A701A78002AFCD13D
:100FA800802208701A7030BC704700BFA943001037
:100FB800A8430010F0B51B4C83B01B4A802704F1EE
:100FC800080C1A4E14F8015B1378002BFCD1644509
:100FD80035701770F6D1071D802510F8014B13786E
:100FE800002BFCD1B84234701570F6D1104A0DF1BF
:100FF8000506104F68464025137803F0FF04002BC0
:10100800FAD13B78DBB200F8013BB0421570F3D15E
:1010180068468DF80540FFF75BF9B0FA80F04009A3
:1010280003B0F0BDE8B70000A9430010A8430010C2
:1010380008000010AA43001070B483B00D4A0E4E89
:10104800402469460DF10505137803F0FF00002BD5
:10105800FAD13378DBB201F8013BA9421470F3D11D
:10106800064B009A9A4208BF9DF8040003B070BC72
:10107800704700BF08000010AA4300104B46463ACC
:1010880000B583B04FF480320F4901AB09F03AFE46
:1010980058B10E4B4FF480029A6100230C4A18464F
:1010A800D372137303B05DF804FBBDF804304FF43A
:1010B8008001064A022B9161EFD9054A0120A2F866
:1010C8000B3003B05DF804FB00C00020001002588C
:1010D800904D001010B5ADF50C7D0122334902A8E2
:1010E80009F0E8FC38B3324B4FF480029A61314C76
:1010F80000214FF4806220460AF07FFA2E4B03CB82
:101108002060616002A809F0DBFF29494FF48000E4
:101118002A4A2B4B88611168994238D0294B1B69A0
:10112800DB0641D5274B186910F01000FBD1107071
:101138000DF50C7D10BD04464FF480621D4902A8D0
:1011480001AB09F0DFFD00B10194019B4FF4800170
:10115800174AB3F5806F9161C9D101AB4FF4803262
:10116800194902A809F0CEFD08B100230193019B9B
:101178004FF480010E4AB3F5803F9161B7D1082240
:101188000C490D480AF006FA0028BBD0AFE7A3F1D6
:10119800D1535168A3F5A013053B9942BED10B4B1F
:1011A80091689942BAD1BDE70120C1E7BCB70000F8
:1011B80000100258904D0010D0B7000000C0012068
:1011C8004B756E670000025800C00020656E750000
:1011D800F0B590F82822054683B00C46032A0B7810
:1011E80048781CD0232B01D9022A34D00021013B96
:1011F800DAB2292A0CD90021194E4FF48007284663
:101208000AF052F8B761A0B10020207003B0F0BD19
:10121800144A32F81330184401EB0021ECE7013B83
:10122800DAB24F2AE7D803EB830300EBC3031902B2
:10123800E2E7284601AB4FF48072214609F062FDCF
:1012480038B9019BB761B3F5807FDDD1012003B0C8
:10125800F0BDB761D8E7233B0349DBB2C7E700BF5E
:101268000010025808BA000000AB02002DE9F04156
:101278000546002700F20A3800F22A26D5F830433E
:10128800314628462034444511D8C5F830436079A2
:10129800A02818BF002814BF012000201CD16075A9
:1012A8003146D5F83043284620344445EDD995F8E1
:1012B8002A323446C5F830635BB195F82932272BBA
:1012C80003F1010205D885F82922FFF781FF0028DC
:1012D800DDD10020BDE8F081A3786775002BCDD063
:1012E800BDE8F08110B5ADF50C7D0A221E4902A8B3
:1012F80009F0E0FB40B11D4B4FF4800200249A61D5
:1013080020460DF50C7D10BD04464FF48062184947
:1013180002A801AB09F0A2FD80B9019B4FF480013E
:10132800124AB3F5806F91610AD0002402A809F02F
:10133800C7FE0E4B4FF480029A61E1E70194ECE797
:1013480001AB4FF480320B4902A809F087FD08B1C0
:1013580000230193019C4FF48002044BA4F58031D3
:101368009A614C424C41E1E7BCB7000000100258BA
:10137800904D001000C0002038B590F86330044646
:10138800023B032B25D8DFE803F002022F2590F853
:1013980060500846B4F85C2023689542A16DDB696B
:1013A80028BF15462A469847B4F85C30A26D5B1BE7
:1013B8002A449BB2A265A4F85C3053B994F8633010
:1013C800022B03D094F86030AB4202D0042384F897
:1013D800633038BD0025836880F86350002BF8D04F
:1013E800416D9847A56038BD062380F8633038BD45
:1013F80005292DE9F0411546044629D0062908D0CB
:10140800042901D0BDE8F0811146BDE8F041FFF79D
:10141800B3BF0022476D036880F8632082609B6930
:101428003946B4F85E202846984708284CD02368E7
:10143800012105F07F001B6A9847236845F080006A
:1014480001211B6A9847002384F86330BDE8F081C6
:1014580090F86360476D012E036813D0DFD3062E22
:101468002DD100229B692846114615469847A36846
:1014780084F86350002BC5D0616D20469847A5605D
:10148800BDE8F0819B691046A16DB4F85C209847CF
:10149800B4F85C3082B29A423AD92368314605F0F2
:1014A8007F001B6A98472368314645F080001B6A15
:1014B8009847002384F86330BDE8F08123681B6AED
:1014C800012105F07F00B7E7FB8807F10806B4F8AB
:1014D8005E20A665A4F85C303978C90925D1B3FA2D
:1014E80083F84FEA5818B8F1000F1ED1934240F222
:1014F800BA802368012105F07F001B6A984723689A
:1015080045F0800001211B6A984784F8638079E7D9
:1015180007D0A16D9B1A11FA80F0A4F85C30A06581
:1015280070E707F10806B4F85E206368A665A4F8BA
:101538005C202BB104F1080239462046984768BB65
:101548003B7803F06302012A00F085802ED3022A3B
:10155800B4D17A782368012A00F08980C0F09D8090
:10156800032AACD11B6A0121387998473B781B06BE
:1015780045F0800000F1818023680022DB69114674
:101588009847052384F863303CE72369002B95D0FE
:1015980004F15C0204F1580138469847012860D0EC
:1015A80002288BD1052384F863302BE77A78092A3F
:1015B80084D801A151F822F02F160000C5140000AC
:1015C800C5140000C5140000C5140000031600006F
:1015D800E9150000C51400002716000035160000A4
:1015E8007A8840F2FE339A42CFD1236830461B6B8B
:1015F8009847A4F85C003B78B9E723681B689847CC
:10160800C20756D52368B878DB6898477B88002BD3
:101618000CBF0223032384F862303B78A7E794F8D1
:1016280061203A72A3E700223A81A0E7E368BE7816
:10163800002B3FF443AF31462046984701287FF4FA
:101648003DAF002E84F861600CBF0323042384F8A7
:1016580062303B788BE77A78002A7FF42FAF3A81A3
:1016680085E73B7883E7012384F86330CAE61B6A81
:101678000021387998473B7879E7FB88B4F85C20F3
:101688009A4212D30222A4F85C3084F863200146FF
:101698002046BDE8F041FFF76FBE5B6A387998478E
:1016A800002338727B723B7861E7032384F8633048
:1016B800EDE7024BA3603B7859E700BF49040000FF
:1016C800074BD3F8D8301B0107D5064B5B6813F0DE
:1016D800020F0CBF2920092070470120704700BF66
:1016E800004402580008084003060AD440010F4A83
:1016F800835813F4004F03D091B143F4001383507F
:10170800704700F07F000A4A4001835813F4004FE5
:10171800F6D00029F1D123F0C15343F0C053EEE7CE
:1017280023F0A15343F0A053E9E700BF000B0840A2
:1017380000090840030605D4064B4001C058C0F311
:101748004050704700F07F00034B4001C058C0F381
:1017580040507047000B084000090840002834D06A
:10176800294AD2F8D83043F00063F0B4C2F8D83030
:10177800BFF34F8F254B1A69002AFCDAD8684FF45B
:101788000025234A00242349342702402248234EB7
:101798001143234AD9609D6301250460506821499B
:1017A80040F00200204C5060106801404FF0FF30BC
:1017B80041F0030111605F629E6215619C6158618E
:1017C8009A682A43F0BC9A6070470F4BD3F8D82028
:1017D800120118D5D3F8802042F00062C3F88020A7
:1017E800BFF34F8FD3F8802022F00062C3F8802027
:1017F800BFF34F8FD3F8D82022F00062C3F8D82067
:10180800BFF34F8F704770470044025800000840EC
:10181800FFC2FFBF00180040000E0840340010004F
:1018280000080840FCFFFFFC1038048058B90C4938
:1018380000200C4A4B6843F002034B60936B23F47F
:1018480080339363704707490020054A8B6B43F444
:1018580080338B63536823F002035360704700BFE3
:101868000008084000000840F8B580B9082A1ED9C9
:10187800102A52D9202A3B4B3B4D3C4C98BF1D4661
:101888003B4E84BF4FF004444FF0006612E003065D
:101898001CD402294FEA4013364C50D006294ED0AA
:1018A80001293ED03449012011431951F8BD334C68
:1018B800334D344E344901202E4ACB69334F43F01F
:1018C8000113CB613E6015611460F8BD012915460E
:1018D8000E4600F07F0429D0062927D0114620465D
:1018E800FEF7FAFD48B3284A0121022E4FEA441CAC
:1018F800D06901FA04F3254F4FEA845443EA000300
:10190800D36128D0062E26D08E421DD0204B084603
:101918002B431C434CF80740F8BD1E4C1E4D1F4E70
:10192800C8E71F4D084615431D51F8BD69002046FC
:1019380089B2FEF7D1FD0028D5D10020F8BD19499C
:10194800012011431951F8BD154B30462B431C4358
:101958004CF80740F8BD144B01202B431C434CF8AE
:101968000740F8BD2000082040000820010000843E
:1019780001000008000B084000800C94030000845C
:101988000800082003000008000808400009084073
:1019980000800C18020000841000082002000008D3
:1019A8000080049400800894008008180B7803F0E5
:1019B8006303212B02D00023184670478B88002B25
:1019C800F9D14A78212A12D0222A17D0202AF3D115
:1019D8000B4A012310B4106801F108048860184606
:1019E80091889279A180A2715DF8044B70470449EF
:1019F800072201238165A0F85C20DDE70123DBE7EE
:101A08000000001038B505460C46F9B101291BD174
:101A180003684022022120461B6998472B68402210
:101A280002211B69812098472B68082203211B6922
:101A3800822098472B6800220C49DB698120A96322
:101A480011469847204638BD002038BD03688220DB
:101A58005B6998472B6881205B6998472B68012050
:101A68005B699847AC63012038BD00BF151F0000B3
:101A7800002147F2305C174A0846F0B5164C0E466E
:101A8800164F4FF4800E1525636BA72B16D9636B81
:101A9800A92B13D80131C7F818E0C9B25560966070
:101AA8001368DB03FCD50329EED10B4B6FF008025A
:101AB8001A61DA6842F00802DA60F0BD604502D8BF
:101AC80001300021EAE77B69002083F040030146EA
:101AD8007B61E3E710E000E00000014000100258DD
:101AE800074B41F2680000211A4630B42025054C06
:101AF800A561586099601368DB03FCD530BC70475A
:101B080010E000E00010025800220F4908B5104606
:101B180008F0A6FF0D4B40200D4A6FF008019061B8
:101B2800DA680A40DA601961FFF7DAFFBFF34F8F0E
:101B38000849094BCA6802F4E0621343CB60BFF35B
:101B48004F8F00BFFDE700BFD8B70000000001407D
:101B58000010025800ED00E00400FA05034A08B539
:101B680007CA034B83E80700FFF7CEFFDCB7000086
:101B780000C001200B4A10B41369DB06FCD50A4CDF
:101B88000A4822680A4B22F00F020A4922600268BA
:101B98005DF8044B134003600B6823F440630B604B
:101BA800704700BF000001400010025800040258AE
:101BB800FF03F0FF000C0258013A70B4D4B220269B
:101BC800013404440DE0A3F16102192D01F1010172
:101BD80003F12005D2B211D8EBB2844200F8013CDF
:101BE80009D00B780130A3F14105002BEBD18442D9
:101BF80000F8016CF5D1084670BC7047192AA3F1AA
:101C0800200203D95F2B08BFA423E6E7D3B2E4E799
:101C1800F8B5457F162D1CD005EB45036E1C134FF8
:101C28001B01F6B2DC19F1B14FF0200C03F807C024
:101C3800037F162B0BD0A162114646772422601C25
:101C4800FFF7BAFF2023204684F82530F8BD057732
:101C5800F1E715244FF47C73044F2E46447725464C
:101C6800DC190029E0D1E025DD55E4E700E001209A
:101C78002DE9F8430646DFF854904FF0E0080027B6
:101C880011E02401D3B209EB040509F804802422E9
:101C9800AF62681C7377FFF78FFF2023014685F832
:101CA800253003784BB1737F162B03EB430403F104
:101CB8000102E6D14FF47C74E5E719463046024A42
:101CC800BDE8F843FFF7A4BFD8B7000000E0012043
:101CD80038B5104B0C461A6892B10F4A1625986110
:101CE800002112689D839A420A4818BF5A610B4A1C
:101CF800FFF78EFF21460748FFF7BAFF054838BDB2
:101D08000749084A084D19600849C3E90152C3E95F
:101D18000321E2E7F4450010F0450010D8B70000B1
:101D2800151E00006D0E0000CD0D0000DD1E000028
:101D38000B460146052B2DE9F04115462BD81D4CC5
:101D48001D4854F823701D4A50F8230052F82360A8
:101D5800FFF7BEFF3A461A490446FFF759FF00232A
:101D680080F82D5080F82C304EB132461449204668
:101D7800FFF74EFF022380F82D5080F82C30114ACF
:101D880020461149FFF744FF104A23682046146093
:101D9800BDE8F04118470E48FFF79AFF0D4A084979
:101DA8000446FFF735FF002380F82D5080F82C30CB
:101DB800E5E700BF7CB7000064B7000094B70000F7
:101DC800E50D0000FCBA0000090E0000F045001007
:101DD80004BB000014BB000070B51546FFF778FF80
:101DE80004462946FFF744FF2046054A0549FFF700
:101DF8000FFF054A236820461460BDE87040184765
:101E080038BC0000090E0000F04500102DE9F84329
:101E180006462C4C2378002BFCD101232A4D802721
:101E2800B169222229482B702770FFF7C5FEDFF819
:101E38009CC061460CF1220E11F8010B237803F0C7
:101E4800FF02002BFAD1714528702770F4D196F85B
:101E58001DE0BEF1000F1CD096F81C8010461C4EE9
:101E68004FF0A00913468027984524D016F8251C62
:101E7800A6F125022378002BFCD196422970277001
:101E880002D012F8011FF5E701303036C3B29E4583
:101E9800EAD800230D4A8026194602F125008CF85D
:101EA80000302378002BFCD190422970267006D090
:101EB80012F8011FF5E7A02106F8259CD8E7BDE830
:101EC800F88300BFA9430010A843001000C00120F8
:101ED80025E0012070B5447F034694420ED90A4D8F
:101EE80002EB420405EB0414A56A3DB102772B46C8
:101EF80001F0BF022146BDE8704018471846FFF7B9
:101F080085FF002070BD00BF00E00120042938B51E
:101F180014D0052911D1194C2368B3F5E07F27D2D5
:101F28000368402221680120154D9B692944984780
:101F3800002802DD23681844206038BD114C23684E
:101F48003F2B12D94022036881200F4DDB692946B7
:101F58009847031EF1DD2268E9182846D31A236042
:101F68002268BDE8384009F02FBB226892B2EAE740
:101F7800064A936823F00103936038BD7C4900103A
:101F88007C470010804B001080490010000008407A
:101F980008B5094809F0A6F8084B00284FF4800254
:101FA8000CBF012000209A6105D0054B002283F860
:101FB800202083F8002308BDB04D001000100258FF
:101FC800904D00100D4B4FF0FF320D4810B55A736D
:101FD8000C469A7309F074F80A4A4FF480010A4BC8
:101FE8000A48916118601CB90368BDE81040184799
:101FF80043680121BDE81040184700BF904D00100C
:102008007040001000100258F045001014460010EF
:102018000A780AB90020704710B50C46FFF7D8F8BF
:1020280030B1237833B9607810B10138C0B210BD2F
:10203800002010BDFE2010BD10B590F8283200F227
:102048002A210446032B4FF000030CBF282212223A
:1020580080F82B3280F82A22FFF7BAF8E0B194F81A
:1020680028320022032B0CBF04F22E2304F2BA23D9
:10207800C4F82C33DA7594F82832032B0DD01222C9
:10208800012384F82A2284F82B32002204F22A330E
:1020980084F82922C4F8303310BD282284F82B3262
:1020A80084F82A22F1E700BFF8B5134C002207464E
:1020B8000D4694F83C3284F83D22032B0CBF4FF4B4
:1020C8004A734FF48973A4F83E320C4BA3F22A36B4
:1020D800C4F844333046FFF7C9F8394658B1D4F844
:1020E800440325B1837803F007039D42F2D1FEF73C
:1020F800BBFE0028EED0F8BD5C4000109A430010EB
:10210800F8B5374F0023374D3A4604E0B3F5387F2A
:1021180002F8011B56D015F8011F9CB21646013370
:102128000029F3D198B1012C46D90134A4B2214633
:102138002D4B2F2293F800333270A3B12B4A3B5515
:10214800013412F8013FA4B2002BF8D13E19002344
:1021580033704CB92E232249222221483B80FFF7B5
:102168002BFD2046F8BD7B54222C16D8012C07D015
:1021780000241B4922221A48FFF71EFD2046F8BDFD
:102188003C7822221649A4F12F041548FFF714FDC4
:10219800B4FA84F464092046F8BDA4F122039BB282
:1021A800581C2E220024F918FA543A5422220C48BA
:1021B800FFF702FD2046F8BD0B4B93F80033002BC8
:1021C800BCD1C4E730B987F8E00240F2BE2340F240
:1021D800BF20E6E740F2E121054E0C46A8E700BF24
:1021E80000C00120AF4D0010904D0010905000101D
:1021F800E0C2012038B5184C0146012204F1140050
:1022080008F058FC28B1154B4FF4800200209A6161
:1022180038BD206AFEF7D4FB054684F83C0288B135
:10222800032D4FF000024FF001000CBF4FF44A732A
:102238004FF4897384F83D22A4F83E32084BC4F861
:10224800443338BD04F1140008F03AFF034B4FF44F
:10225800800228469A6138BD5C4000100010025880
:102268009A43001000294FF000022DE9F043B4BF53
:1022780001F10108884683B089464FEA6808124F81
:102288000DF107061546C8F10408019016F8014932
:10229800230974B104F00F04F85CFEF781FB385D84
:1022A800FEF77EFB01220135042DEFD103B0BDE816
:1022B800F083B9F1000F04D1032DEBD0002AF2D03E
:1022C800E8E7A845E6D9F7E73CBC0000F8B5051EE5
:1022D80005DACB0703D52D206D42FEF761FB0A26F0
:1022E80000220B4C0B4F95FBF4F303F130001A431B
:1022F80004FB1355C0B202D0FEF752FB012287FB44
:102308000413013E4FEAE474C4EBA304EBD1F8BD17
:1023180000CA9A3B676666660EB42DE9F04183B041
:10232800774B0024774E09AA18600746346052F8A4
:10233800045B2B780192002B00F0E080A046252B4F
:1023480018D064B3A3F15802202A00F2B780DFE85E
:1023580002F095B5B5B5B5B5B5B5B5B5B58675B52C
:10236800B5B5B5B5B5B5B5B5B5B560B5B535B5A5FA
:10237800B5B59500E4B132680024BB54013215F8B4
:10238800013F3260002BDAD133681F440133002249
:1023980033603A7003B0BDE8F04103B0704732686B
:1023A800511CBB5415F8013F3160002BC7D1EBE736
:1023B80015F8013F0124002BC1D1E5E708F1FF34EE
:1023C800B8F1000F0BD0306820213A1802EB08034F
:1023D80002F8011B9342FBD1431C23443360019A4A
:1023E800146804322378019263B13068621C411E7C
:1023F800001B394401F8013F841812F8013B002BF7
:10240800F8D13460002415F8013FA046002B96D17E
:10241800BAE733683021019A7820F954F918141D65
:10242800023348704146106833600194FFF71AFF81
:1024380015F8013F0024002B81D1A5E7019B1A1D47
:102448001C680192002C49D020460121FFF73EFF6D
:1024580015F8013F0024002B7FF471AF94E7019A2F
:10246800002433681178101D5A1CF95415F8013FDF
:1024780001903260002B7FF462AF85E7019B4146F3
:102488004FF000081A1D186844460192FFF7EAFE4B
:1024980015F8013F002B7FF452AF75E7019B1A1D19
:1024A8001C680192D4B120460021FFF70FFF15F8F0
:1024B800013F0024002B7FF442AF65E7A3F130020F
:1024C800092A14D808EB880803EB4803A3F130085D
:1024D80015F8013F002B7FF432AF55E73020FEF7A7
:1024E8005FFA15F8013F002B7FF429AF4CE715F888
:1024F800013F0024002B7FF422AF45E7012346E784
:102508009446001050000010104810B503780C468F
:10251800DA0716D523F001030D4A03700D490E485A
:10252800FFF7FAFE0C492422601CFFF745FB0B4B12
:1025380020221B6884F8252018461B68984700202D
:1025480010BD43F00103064A0370E7E79046001008
:102558004CBD000050BD000000C00120F045001037
:1025680048BD00002DE9F04F077DCBB081460191B1
:10257800002F40F09D80B0F8783004AE002B5DD07D
:10258800DFF854814D4C4E4D09F1480B3146584601
:1025980008F086FF4B4B4FF480029A61002867D100
:1025A800B37D002B66D07B1CBB46DFB24FF0200A00
:1025B8001F220DF12601444888F800A0FFF7FCFA15
:1025C800327A88F820A0D30645D4404B326893E885
:1025D8000300B2F57A7F02908DF80C1066D302AB37
:1025E80000E00B461832591C920AB2F57A7FF8D2ED
:1025F8005B78632A3AD82021092A88F821105AD80A
:10260800334888F822103349FFF786FE019B5B4563
:1026180028D0314A4FF0800C02F1260012F8011B35
:102628002378002BFCD18242297084F800C0F5D1B0
:10263800162FA9D138464BB0BDE8F08F42F62E616F
:1026480010229B4633760127F1823272DFF88880A8
:102658001A4C1B4DAAE721492148FFF75DFE019B53
:102668005B45D6D1A02388F80030D2E71C48CAE7DA
:102678000023B37558464FF4800608F007FF00237F
:1026880010490120144A8E61194689F8150002F193
:102698002506802088F800302378002BFCD1B24230
:1026A80029702070C6D012F8011FF5E74223A0E771
:1026B800002704AE64E70B48A5E700BFA943001054
:1026C800A84300100010025801C0012040BD0000BE
:1026D80023C0012038BD000000C0012030BD00002B
:1026E80021C0012022C00120F0B5234A8DB0137803
:1026F80003F0FF06002BFAD1204D02218024437DF0
:10270800297014707BB11E4B30461E70194603F1B8
:1027180025061378002BFCD18E422870147022D025
:1027280011F8010FF5E700F148060446B0F8787093
:102738006D460FCE0FC50FCE01370FC596E80F00B7
:10274800A4F8787085E80F0016212046FFF70AFFE5
:1027580058B16D4618340FCD0FC40FCD0FC495E88E
:102768000F0084E80F000DB0F0BDB4F87830013BDD
:10277800A4F878300DB0F0BDA9430010A8430010AC
:1027880000C001202DE9F04F002387B0DFF80C824C
:102798007C4C7D4DDFF814A2039005910293029AB8
:1027A800D3B20093002A00F0B480009B012B00F004
:1027B800BB80039B03F11400FEF758FD002800F0CE
:1027C8009080039A2023002042F21076D2F8442306
:1027D80088F800308446019207460493B2F81EB088
:1027E8000CF1010EA8EB0001BBFBF6F3AAFB0329D1
:1027F800C2B24FEAD90909EB8909A3EB490313F0DF
:10280800FF0314BF4FF001094FF000093033042AC9
:1028180008BF49F0010957EA09075FD05B4A0CF87D
:1028280002305FFA8EFC0130AAFB063605284FEA13
:10283800D606D5D12022564B0199104603F11A0627
:10284800053188F8062009E00D2A01F1010143D07D
:102858000A2A41D0B34203F8012C07D00A78013381
:10286800002AF1D1B34203F8010CF7D1019B019E74
:1028780093F90230474A002B4748ACBF2A2320234C
:1028880088F82130B37803F0070352F8231008F0D2
:10289800BCFEB3785B064CBF3C23202388F8253068
:1028A800059B009A934267D03C4A802602F1260095
:1028B80012F8011B2378002BFCD182422970267064
:1028C800F6D1029B0133162B02937FF468AF009375
:1028D800009807B0BDE8F08F5F22BBE7049B4B71FF
:1028E800A1E7039F01262D4A0146D7F84033187007
:1028F80087F8496302F1250688F8000080202378CC
:10290800002BFCD1B24229702070E1D012F8011FCF
:10291800F5E7039B93F84833002B7FF44AAF20492F
:102928001E48FFF7F9FCBBE7039B93F84833002BDD
:102938007FF43FAF039B19481A49D3F84073FFF758
:10294800EBFC1348202200F11A0609E00D2B07F1D1
:10295800010715D00A2B13D0B04200F8013C07D06C
:102968003B780130002BF1D1B04200F8012CF7D1AF
:102978000D49FFF7D1FC93E7A02388F8003093E7CF
:102988005F23E9E7A9430010A843001001C0012014
:1029980007C001205CBA000022C0012000C001204D
:1029A800D0B90000F8B9000000BA0000CDCCCCCCFA
:1029B800174A70B5137803F0FF06002BFAD1154DAE
:1029C8000221802490F84933297014707BB1124B8E
:1029D80030461E70194603F125061378002BFCD1EA
:1029E8008E422870147011D011F8010FF5E790F895
:1029F800483316210446013380F84833FFF7C2FEF6
:102A080020B994F84833013B84F8483370BD00BFBF
:102A1800A9430010A843001000C001200F4B00225A
:102A28000F4930B51C4683B00E4D59609A60216835
:102A380001AB01220D20C9030DD429880904FDF733
:102A4800ABFC0028F3D0019B03F4F053B3F5006FFF
:102A5800EDD103B030BD002003B030BD10E000E080
:102A6800A037A0004C0000102DE9F843344F01F5C1
:102A780048790A463E4605E05FFA88F3914506F82C
:102A8800013B1AD0551A12F8013BB646A3F161046E
:102A9800A3F1410C03F12008ADB2E4B2A3B1BCF13B
:102AA800190FE9D9192CA3F120040BD95F2B08BF02
:102AB800A423914506F8013BE4D140F22135DFF823
:102AC80098E003E0E3B2D9E70135ADB200231D4930
:102AD8008EF80030FEF76EFA00282FD0E9B21A4AB5
:102AE8001378002BFCD1194E8023C5F307243170CD
:102AF80013701378002BFCD180233D4410491F46E6
:102B08003470137011F8014B1378002BFCD1A942D3
:102B180034701770F6D10E4B1A78002AFCD10D4C80
:102B28002178C9B240221A701A78002AFCD122787A
:102B3800D2B240241C7001B902B10020BDE8F8836C
:102B480000C00120F4B70000A9430010A8430010FA
:102B580008000010AA43001020C3012008B5FEF7A2
:102B68000DF903490348FFF77FFFFEF7F7FF00BFA2
:102B7800E0BA0000F8BA000008B5012207F09AFF91
:102B880028B1034B4FF480029A61FFF7E7FF08BDB5
:102B98000010025838B50A4B1A6822B1FFF72AFB11
:102BA80060B1074838BD074A074D084C08491A6004
:102BB800084AC3E90154C3E90312EFE7FFF7CEFF60
:102BC8005C400010AD2C0000CD1F0000352C00002B
:102BD800B9290000652D00002DE9F04101EB8105C0
:102BE80080F8481301EB45014D00022D17D98046A6
:102BF80000F11407022403E00134A4B2A5420ED068
:102C08003846FEF733FB06460028F5D13846FFF76D
:102C180013FA40B188F848633046BDE8F0810126D0
:102C28003046BDE8F081FFF799FF00BF1A4A70B53A
:102C3800137803F0FF06002BFAD1184D02218024E7
:102C480090F84833297014707BB9154E18463146F0
:102C5800337025361378002BFCD18E4228701470FF
:102C680002D011F8010FF5E770BD04461430FFF7E4
:102C7800E3F970B194F84813204684F849630139A0
:102C8800C9B2FFF7A9FF20461621BDE87040FFF73B
:102C980079BDFFF763FF00BFA9430010A8430010E8
:102CA80000C001202DE9F0418046274C2378002BF5
:102CB800FCD1264E0127802508F1140037702570B5
:102CC800FFF7BAF900283CD03846FFF719FA20492F
:102CD80001F1220711F8010B237803F0FF02002B02
:102CE800FAD1B94230702570F4D11A4D4FF6FF73FE
:102CF80088F84923B5F80D609E4218D0164C404616
:102D0800A4FB06342409E1B2FFF766FF162130B9A7
:102D18006873A8734046BDE8F041FFF733BD01FB77
:102D280014614046C9B2BDE8F041FFF72BBD88F8F1
:102D3800482340466A731621AA73BDE8F041FFF79D
:102D480021BDFFF70BFF00BFA9430010A8430010E7
:102D580000C00120904D0010A38B2EBA2DE9F04F32
:102D680090F848430025874F83B004EB84038946D5
:102D78007D7204EB4304FD7302EB4404A7F80D4095
:102D88004CB911F040094DD14946FFF71BF94846A7
:102D980003B0BDE8F08F012C0646924675D096F830
:102DA8003C3206F11408032B00F09780122201230D
:102DB80086F83E2286F83F32002206F23E3303258B
:102DC8004FF6FF7B86F83D22C6F8443302E0AC425A
:102DD80030D39DB24046FEF749FA6B1C002863D0F9
:102DE8005C45F4D1D6F84423917801F00701022913
:102DF800EFD1D1780029ECD05379002B60D062480C
:102E08000632014606E00A2B0AD001F8013C12F806
:102E1800013BF3B1A02B1CD00D2B01F10101F2D124
:102E28005F23F2E721465948FEF782FF204603B0A8
:102E3800BDE8F08FD6F844235379002BDFD1002466
:102E480030467C73BC73FFF72DFF204603B0BDE806
:102E5800F08F002419F040050C70FC771ED1D6F8CD
:102E680044138B7803F0070219F0020352D1022AA7
:102E780002D1CA78002A3CD1434A45494548FEF761
:102E8800ABFF002003B0BDE8F08F11F0400F2AD14E
:102E980011F0020344D04FF6FF7480E75246052133
:102EA800FEF746FF204673E7D6F844335871D6F844
:102EB80044235379002BA2D14FF6FF739C42BED115
:102EC80000240123344A35493548BC737B73FEF727
:102ED80083FF204603B0BDE8F08F282286F83F32F2
:102EE80086F83E2268E72F480521FEF721FF28468D
:102EF8004EE7009302462C492C48FFF70DFA0423AD
:102F08002B487B7208F0DCF82A4B4FF48002012032
:102F18009A613DE7022A0BD00023FB723B73ABE7B3
:102F28000093204A20492148FFF7F6F90423E7E7F0
:102F3800CB78002BF0D086F83E3206F23E2A0B7989
:102F480006F51079194C86F83F320AE00246054426
:102F58002046144408F02DFB05F1FE03B3F5803F2D
:102F6800DAD851464046FFF753F849460028EDD1D4
:102F7800ADB2022DA7F80B507FF67EAFFDF7FEFE2F
:102F88000223BDE7904D00109F4D001058B9000076
:102F9800A0B90000C4B900009050001074B9000036
:102FA80094B900005CB9000060B9000000C00020BE
:102FB8007040001000100258F8B500F118040646D9
:102FC8000C49204608F01EFA28B10B4B4FF480023A
:102FD8009A61FFF7C3FD074606F148050FCC0FC5F8
:102FE8000FCC0FC594E80F0085E80F00A6F878709D
:102FF8007775F8BDD8B70000001002582DE9F047E2
:10300800B0F87860C6B056B3013E0746FFF7D4FF64
:103018002A4AB6B21378002BFCD106EB860328485F
:103028000224802106EB430304705B0011709BB2FD
:10303800D3B907F148084446A7F8786007F118059E
:103048000FCC0FC50FCC0FC594E80F0085E80F0013
:1030580016213846FFF786FA46B0BDE8F087FDF737
:10306800DBFE46B0BDE8F0873A7DEAB99D1EADB2F9
:10307800013507F148080024DFF848A04FF480091B
:103088006946404608F00CFA0134CAF8189070B145
:1030980007F1180544460FCD0FC40FCD0FC495E8AE
:1030A8000F0084E80F00D3E75D1EADB2E0E79DF89E
:1030B8001630002BECD0AC42E2D1BCE7A94300109B
:1030C800A8430010001002582DE9F04FD3B006466F
:1030D800FFF772FF4FF438715B4808F039F85B4D21
:1030E8004FF48003DFF878A10020AB61FFF708F800
:1030F80030759AF80033002B00F0A48006F1180709
:103108000446EC46A846BE4606F148050AF540794D
:10311800BEE80F00ACE80F00BEE80F00ACE80F00F7
:103128009EE80F008CE80F00002C6DD1B6F87840AF
:10313800B4FA84F464094FF4800B0CA9284608F00B
:10314800AFF94FF480720DF14601C8F818B00028A5
:1031580039D000238DF846306C464FF0000EA44657
:103168000FCC0FC70FCC0FC794E80F0087E80F00EC
:10317800BCE80F000FC5BCE80F000FC594E80F00AE
:10318800162485E80F00A6F878E0314A1378002B5A
:10319800FCD180232F49304D01209C4601F12207A4
:1031A8002870137011F8010B1378002BFCD1B94269
:1031B800287082F800C0F5D121463046FFF7D2F9D1
:1031C80053B0BDE8F08F9DF846304846002BC3D079
:1031D80008F023FA631CC8B1DCB2162CADD1AC469A
:1031E8003C46B6F878E0BCE80F000FC4BCE80F0016
:1031F8000FC49CE80F000EF1010E84E80F00347D27
:10320800A6F878E0002C91D0002494E70FCF0FC5E2
:103218000FCF0FC597E80F0085E80F000CA8FDF742
:1032280009FC0428B1D1BAF80D204FF6FF739A4271
:10323800ABD00DF14600FFF7ADFC08490268086005
:103248009047BDE71624A0E7B04D001000100258C3
:10325800A943001000C00120A8430010F045001049
:10326800904D0010F8B505460E46FAB1027DEAB950
:103278001848114607E0013294B22F2B08BF2146A7
:10328800B2F5387F03D010F8013F002BF3D1541A60
:10329800114F2246394407F5387008F08AF9A7F12A
:1032A80020020023224482F8003303E00B4B002263
:1032B80083F80023304607F015FF094B4FF48002CE
:1032C8009A6120B92846BDE8F840FFF7FDBEFFF730
:1032D80045FC00BFAF4D0010B04D0010904D0010E0
:1032E8000010025819B901220349FFF7BBBF002299
:1032F8000249FFF7B7BF00BF58B90000DCBA0000A9
:103308002DE9F04FA94C00254FF0FF33ADF5777D3F
:1033180084F800538246067D8B4665729146637336
:10332800A3731EB9B0F87830002B56D0C8460AF1FE
:1033380018070AAE00250FCF0FC60FCF0FC697E8A4
:103348000F009B4F86E80F004FF4800626A90AA8B5
:1033580008F0A6F8BE61002840F088819DF8AE30DC
:103368001BB10135EBB29845F0D2914F4FF480066E
:103378000AA808F08BF8BE619DF8AE3023B326A8E2
:10338800FDF758FB0DF1AE0180468A4808F03DF97B
:103398001BF040033BD1B8F1000F27D0B8F1030F61
:1033A80041D9B8F1FD0F00F0A380B8F1FE0F68D045
:1033B800B8F1040F00F0D1800DF1AE027E497F48CC
:1033C8000026FEF709FD03E050461E46FFF77CFE87
:1033D80030460DF5777DBDE8F08F9AB911F0400FB2
:1033E8004AD031467648FEF7A3FCF1E746465046F8
:1033F8000DF1AE014246FFF735FF30460DF5777DFA
:10340800BDE8F08F02F1FF385FFA88F88FE70026F1
:103418000DF1AE004A464146FEF78AFC30460DF5EE
:10342800777DBDE8F08FB8F1020F32D2B8F1010F05
:10343800C2D16CAD0DF158080DF1AE012846FFF769
:103448009BFB284606AB4146402207F05BFC002860
:1034580040F09F80069BBE61402B05D1594BD8F8A0
:1034680000209A4200F004810DF1AE0252495348FF
:10347800FEF7B2FC0026ABE701225149FFF7F2FE46
:10348800A6E70DF1AE02504950481E46FEF7A4FCCF
:103498009EE76CAD0DF1AE0101932846FFF76CFB7A
:1034A800019BB8F1020FE37300F0D1801A2228467D
:1034B80006AB16A907F026FC002840F0C680BDF828
:1034C8001830BE611A2B04D1414B169A9A4200F06B
:1034D8004C820DF1AE02384938480026FEF77CFCD4
:1034E800284607F0EDFD324B4FF480029A616FE7F2
:1034F8001BF0010F40F054826CAD0DF158080DF12E
:10350800AE012846FFF738FB284643464FF4803281
:10351800304907F0F7FB60BBD8F80030BE61B3F55F
:10352800803F27D10DF16B0441462B4809E0A3F1F8
:103538004102192A01D82033DBB201F8013BA1422C
:1035480050D0A1EB080210F8013BD2B2002B4AD0B0
:103558001A06ECD503F07F03EFE71BF002061AD03A
:103568001A461E491B480126FEF7D6FE84F8098034
:103578002EE7BE610DF1AE020F491048FEF72CFC94
:103588002846002607F09CFD094B4FF480029A61FB
:103598001EE7BE6168E70DF1AE006673A673FFF71C
:1035A800F9FA0F4902680860904711E7904D00103A
:1035B8000010025890500010A0B90000C4B90000D3
:1035C80058B900004336342008BC00002CBC000069
:1035D8004336344600C0002000800120A0BB000014
:1035E800F045001013220021C04B08F80210D8F84B
:1035F80000209A42BED1BE4A179B9342BAD1BD4A17
:10360800189B9342B6D19DF86430682BB2D1BA4961
:10361800BA48FEF75DFB04464146FEF729FB204603
:10362800B74AB849FEF7F4FA01220346B6492046DC
:1036380083F82D9083F82C20B44AFEF7E9FAB44AAF
:1036480023682046146098479AE7BE6141E72846F8
:10365800FDF716FD00283FF43CAFFDF78FFB002374
:10366800022201266373A373627239E7FFF776FAC1
:1036780017ABA84A196891427FF4F6AE02F172427C
:1036880053F8041F02F5720202F60F0291427FF40A
:10369800EBAE5A68A04B9A427FF4E6AED8F8101009
:1036A800B8F8143009BAC8F810105BBA9BB2B8F869
:1036B8001620A8F8143052BA90B22029A8F816009B
:1036C80002D040297FF4D0AEB3F5807F7FF4CCAE32
:1036D800202800F2FC80914B53F82030002B00F09A
:1036E800F680FDF74BFB8E498E486FF00807FFF711
:1036F800BBF98D4800230DF1100AC6684FF48032DB
:10370800DFF83092FF213E40DFF838B2C6601E462F
:1037180007618648CAE9003307F06FFF6A69EB68FA
:103728009A4200F08480102206A9284603AB07F0CD
:10373800E9FA002840F0A280039B4FF48002102B86
:10374800C9F8182040F09E80069B794A934240F0C1
:103758009980079ABDF8203092FA82FCCDF81CC0F7
:103768005BBAADF82030BDF822305BBA98B2BDF82C
:103778002410ADF8220049BA89B2BDF82670ADF818
:1037880024107FBABAB202F1100E1746ADF82620FF
:10379800F44577D3B1F5004F00F0948021F4804CC4
:1037A800BCF5204F03D1B2F5005F40F2D980B1F5E6
:1037B800704F67D1B7F5805F64D19FB2BF0307F53B
:1037C8004057032878D9594603AB284607F09AFA98
:1037D80000286FD1039A4FF48003C9F81830BDF858
:1037E800263093424ED1BDF82220111F3B2966D8BE
:1037F800D20807F100611AF80200002872D1101DE2
:103808004FF0010C402740B20AF802C0C9F81870FE
:103818005A46FDF779F8BDF8222096423FF67EAF6A
:103828000132EB68D6B26A699A427FF47CAF414BA9
:103838004FF480029A614EB33F4A042E936843F0D6
:103848000103936008D9B3033C4903F10063086896
:10385800043199421060FAD1374A0123B8F81600AA
:10386800126898F81810226198F81920E6731E4615
:10387800A4F80B006173A2736372A9E52D4B4FF492
:1038880080029A612B4B4FF480029A61264BDB68C9
:10389800190740F182800DF1AE0229492948FEF747
:1038A8003BFD28492848FFF7DFF828492848FDF755
:1038B80081FBDFE500228EE71C49394484E73F2A73
:1038C800ABD92BE7B2F5804FDCD8870379E792B202
:1038D80020491C48FEF720FD1F4A1A491F48FEF7D9
:1038E8007BFAC7E54FF0FF3092E700BF4B756E6774
:1038F80020467520466C6173B4BB0000D8BB00003D
:10390800ECBB0000E50D0000090E0000FCBA000049
:10391800F0450010434152544520202060B6000075
:1039280054BB000070BB00000000014000C0002034
:103938004348495000100258004C02580000010842
:1039480074BB000000C00120F8BA000094BB00005E
:103958009CBB000038BB000090500010C4B90000A8
:103968009FB2BF0307F500572BE7179A204B9A42DF
:103978007FF4AFAD28464FF00008FDF781FB002823
:103988003FF4A7AD18AE1B4F84F81F800FCEC4F8C4
:103998000F007960BA60FB605FE6FEF769F87AE7C6
:1039A8000193FDF7EBF9019B4FF0006412491348AE
:1039B8001E46FFF759F8124B6FF00801DFF84480F4
:1039C800DA680A40DA6019617D6970B24FF48043A1
:1039D800013685F0400508EB040221461C447D6150
:1039E800FCF792FF042EEFD1FDF77CFCFEF7B6F84A
:1039F800696C65009F4D0010F4BB000070BB0000AF
:103A08000000014000C000180A4A08B50A4B1278A5
:103A18001A72FDF7B3F909490948FFF725F8094B68
:103A28006FF00801DA680A40DA601961FDF75AFC9C
:103A3800FEF794F890460010904D00106CBD000001
:103A480070BB00000000014030B407490025074B57
:103A580040240D704FF0C070054A06499C6198617A
:103A6800116030BC704700BFEC45001000100258D0
:103A78005400001000C000202DE9F04FD84E83B04C
:103A88003369180740F1FC81D64B4FF40012DFF878
:103A98006C839C46D44FDFF868E3DFF868939A613B
:103AA800D8F810403969DCF810500BB2DEF8102055
:103AB800ED00980003F004024FEA031A00F0080032
:103AC8002DB20AF0100A40EA0A004FEA430A1043EE
:103AD8000AF4006ADA0040EA0A005B0102F4805244
:103AE800C1F3001A03F40053024305F4804025F49F
:103AF800FF451A438B1025F07F05024348112A43DE
:103B080003F00205E31100F4807042EA0A0224116E
:103B180003F020032A4304F04004CD101343491056
:103B280005F40072234301F48061034313430B43FC
:103B38009BB2DEF81010D8F810003A6901F0300591
:103B48004411C2F3C032C01104F002042A4300F049
:103B580004008D112243891005F00805DCF8104097
:103B6800024301F040012A430A43210448BF62F09E
:103B78007F02D2B202F00901012900F08D81D1073C
:103B880040F1818102F0C001C0296AD09749C3F38E
:103B98000D0397480968C95C11F0010F0CBF4FF479
:103BA8000034022411F0020F0CBF4FF480350125B8
:103BB80011F0040F44EA05040CBF4FF000734FF4F2
:103BC800007311F0080FCCF818400CBF4FF0807547
:103BD8004FF4807511F0100F43EA05030CBF4FF442
:103BE8000004802411F0200F43EA04030CBF4FF4B3
:103BF8008004402411F0400F43EA04030CBF4FF443
:103C08000014202411F0800F43EA04030CBF4FF482
:103C180000112021C9F81830B961DCF8003003F030
:103C28000F03CCF80030D9F800301840C9F800006C
:103C38003B6803F440633B60736A932BFCD9DCF860
:103C4800003023F00F03CCF80030D9F8003023F40B
:103C58007F2323F44063C9F800303B6823F44063B2
:103C68003B60D50600F10481736A532BFCD8614B85
:103C7800716A1A4659605368112BFCD9D8F810108C
:103C88003A69DCF81000DEF810305A4C6368202BD3
:103C9800FCD9DEF81040D8F81030D7F810A004F09E
:103CA800300B5D11CAF3C03ADB1105F002054AEA90
:103CB8000B0A03F004034FEAA41B4AEA050AA410FE
:103CC8000BF0080BDCF810504AEA030304F0400438
:103CD80043EA0B0323432C0448BF63F07F0303F03C
:103CE800C003C02B00F0BF8013B2434CC2F3001BCB
:103CF80003F0040504EAC0005C0128434FEAC30A44
:103D080004F400545D000AF4805A044305F4006585
:103D1800180144EA0A049B004FEAE11A2C4300F018
:103D2800100503F0080390102C43091100F002005D
:103D38000AF0200A234301F04001551143EA0B031E
:103D4800D41005F4807552101843284B04F4007BF6
:103D580002F480621B68264C019340EA0A03254856
:103D68000B432B4343EA0B031343019AC3F30D039D
:103D7800D25C12F0010F0CBF4FF40031022112F097
:103D8800020F0CBF4FF48035012512F0040F41EAF1
:103D980005010CBF4FF000734FF4007312F0080FC9
:103DA800CCF818100CBF4FF080754FF4807512F0E6
:103DB800100F43EA05030CBF4FF40001802112F0F5
:103DC800200F43EA01030CBF4FF48001402112F099
:103DD800400F43EA01030CBF4FF40011202113E008
:103DE8000000014000100258000C02585400001056
:103DF80000FC0F00001000E000C0FFFF00080258A0
:103E0800000002580004025812F0800F43EA010330
:103E18000CBF4FF400122022C9F81830BA61DCF840
:103E2800003003F00F03CCF80030D9F800301C4004
:103E3800C9F800403B6803F440633B6043683C2B8F
:103E4800FCD9DCF8003023F00F03CCF80030D9F8A7
:103E5800003023F47F2323F44063C9F800303B6823
:103E680023F440633B60514A5368602BFCD917E642
:103E78004F4B6FF00801DA680A40DA60196119617E
:103E880003B0BDE8F08F736A812BFCD9D9F81030E4
:103E9800DCF810303B69E4E600BF00BF00BF00BF9C
:103EA80000BF00BF00BFDEF81010D8F810003A6954
:103EB80001F030054411C2F3C032C01104F002040D
:103EC8002A4300F004008D112243891005F00805EB
:103ED800DCF81040024301F04001200442EA0502E8
:103EE80042EA010248BF62F07F02D2B202F0C0018A
:103EF800C0293FF4B6AE2F49C3F30D032E48096815
:103F0800C95C11F0010F0CBF4FF40034022411F00A
:103F1800020F0CBF4FF48035012511F0040F44EA5D
:103F280005040CBF4FF000734FF4007311F0080F35
:103F3800CCF818400CBF4FF080754FF4807511F025
:103F4800100F43EA05030CBF4FF40004802411F05E
:103F5800200F43EA04030CBF4FF48004402411F0FF
:103F6800400F43EA04030CBF4FF40014202411F05F
:103F7800800F43EA04030CBF4FF400112021C9F855
:103F88001830B961DCF8003003F00F03CCF80030CA
:103F9800D9F800300340C9F800303B6803F44063A7
:103FA8003B60736A932BFCD949E600BF001000E020
:103FB800000001405400001000FC0F00DB4B1B699F
:103FC800180740F18982DA4B4FF400122DE9F04FBF
:103FD8009C46DFF87493DFF874E3DFF87483DFF846
:103FE80074B3DFF874A39A61D9F81040DEF81010A2
:103FF800DCF810500BB2D8F81020ED00980003F050
:1040080004021E0100F008002DB206F0100630432D
:104018005E00104306F40066DA0030435B0102F4E8
:104028008052C1F3001603F40053024305F48040A4
:1040380025F4FF451A438B1025F07F0502434811EC
:104048002A4303F00205E31100F48070324324117F
:1040580003F020032A4304F04004CD101343491011
:1040680005F40072234301F48061034313430B43B7
:104078009BB2D8F81010D9F81000DEF8102001F023
:1040880030054411C2F3C032C01104F002042A43BF
:1040980000F004008D112243891005F00805DCF8B2
:1040A8001040024301F040012A430A43210448BF5B
:1040B80062F07F02D2B202F00901012900F06B819F
:1040C80012F0010040F04A819BF8001091B10131D3
:1040D800C9B204298BF800100CD140254FF4000414
:1040E8004DF6FF71CCF81850CCF818408BF800004A
:1040F80090480180DAF81010DCF81060C8117500DB
:10410800C6F3400600F0040405F002004D113043E8
:1041180005F008052043CC10284304F010044D1086
:104128002043490005F02005DEF8104001F0400169
:104138002843A40641EA000148BF61F07F01500707
:1041480004D47C480088984200F02D82D50600F1FE
:104158001881764A536A532BFCD8774B516A1A4612
:1041680059605368112BFCD9D9F81010DEF81020CB
:10417800DCF81000D8F810306F4C6368202BFCD99D
:10418800D8F81050D9F81070DEF8104005F0300655
:104198007B11C4F3C034FF1103F00203344307F06A
:1041A8000407AE112343AD1006F00806DCF81040F2
:1041B8003B4305F04005240443EA060343EA0503AC
:1041C80048BF63F07F0303F0C603C62B04D15A4AE5
:1041D8005368602BFCD907E716B2584DC2F3001498
:1041E80005EAC00006F0040377010343F00007F472
:1041F8000057750000F480503B4305F40065034305
:104208003001B6002B4300F0100506F008069010A8
:104218001D43CB1100F002000911354303F02007BC
:10422800531101F040012C43D51003F4807652104D
:10423800204305F4007502F48062414C40EA07030C
:10424800404824680B433C4933432B431343C3F38F
:104258000D03E25C12F0010F0CBF4FF4003402248E
:1042680012F0020F0CBF4FF48035012512F0040F35
:1042780044EA05040CBF4FF000734FF4007312F0CA
:10428800080FCCF818400CBF4FF080754FF48075BC
:1042980012F0100F43EA05030CBF4FF4000480240A
:1042A80012F0200F43EA04030CBF4FF480044024AB
:1042B80012F0400F43EA04030CBF4FF4001420240B
:1042C80012F0800F43EA04030CBF4FF400122022BF
:1042D800CAF81830CEF81820DCF8003003F00F03C5
:1042E800CCF80030DAF800301840CAF80000DEF8E0
:1042F800003003F44063CEF800304B683C2BFCD907
:10430800DCF8003023F00F03CCF80030DAF8003086
:1043180023F47F2323F44063CAF80030DEF800302A
:1043280023F44063CEF8003051E700BF000001409D
:1043380000100258AE430010001000E000C0FFFF5C
:104348005400001000FC0F0000080258000C02582E
:1043580000000258B14300100004025802F0C601E0
:10436800C62940F0C280950600F1B7809BF800305E
:10437800002B3FF4EBAE0123D5068BF800307FF518
:10438800E8AEAA4B6FF00801DA680A40DA601961F2
:104398001961BDE8F08F00BF00BF00BF00BF00BFBC
:1043A80000BF00BFD8F81010D9F81000DEF81020B0
:1043B80001F030054411C2F3C032C01104F0020408
:1043C8002A4300F004008D112243891005F00805E6
:1043D800DCF81040024301F04001270442EA0502DC
:1043E80042EA010248BF62F07F02D2B202F0C6017F
:1043F800C629B8D08E49C3F30D038E480968CC5C32
:104408008A4914F0010F0CBF4FF40035022514F04F
:10441800020F0CBF4FF48036012614F0040F45EA52
:1044280006050CBF4FF000734FF4007314F0080F2B
:10443800CCF818500CBF4FF080764FF4807614F00B
:10444800100F43EA06030CBF4FF40005802514F053
:10445800200F43EA05030CBF4FF48005402514F0F4
:10446800400F43EA05030CBF4FF40015202514F054
:10447800800F43EA05030CBF4FF400142024CAF848
:104488001830CEF81840DCF8003003F00F03CCF8F1
:104498000030DAF800301840CAF80000DEF80030C2
:1044A80003F44063CEF800304B6A932BFCD9DCF858
:1044B800003023F00F03CCF80030DAF8003023F492
:1044C8007F2323F44063CAF80030DEF8003023F479
:1044D8004063CEF8003039E670474FF08041012341
:1044E800CEF818108BF8003030E65149C3F30D03AD
:1044F80050480968CC5C4D4914F0010F0CBF4FF4CB
:104508000035022514F0020F0CBF4FF48036012647
:1045180014F0040F45EA06050CBF4FF000734FF482
:10452800007314F0080FCCF818500CBF4FF08076C9
:104538004FF4807614F0100F43EA06030CBF4FF4D3
:104548000005802514F0200F43EA05030CBF4FF443
:104558008005402514F0400F43EA05030CBF4FF4D3
:104568000015202514F0800F43EA05030CBF4FF413
:1045780000142024CAF81830CEF81840DCF80030AF
:1045880003F00F03CCF80030DAF800301840CAF80E
:104598000000DEF8003003F44063CEF800304B6AC8
:1045A800932BFCD983E7C9B22348214B01F00F04B0
:1045B80050F8240018604B0620484CBF4FF4804345
:1045C8004FF08043CEF818304B09C1F3011103F0C6
:1045D8000403194350F82110CF061FD4CB018E06CF
:1045E8004FEA8150DBB200F400004FEA811443EA3D
:1045F800000304F480744FEA415043EA040300F0D6
:10460800807043EA00030DD54FF480000021CCF8F8
:104618001800CCF818300A4B198097E54023CCF8DD
:104628001830DBE7CCF8183090E500BF00000140F7
:104638005400001000FC0F0048B80000BCBA00008D
:10464800AE4300108E4B1A69120700D470472DE94B
:10465800F0416FF018028B4C8B481A612769066984
:10466800FA118A490FFA86FE02F0200C3F114FEA30
:104678008E050EF004024FEA0E1307F0400705F00E
:1046880008054FEA4E0803F0100308F400681D43BC
:104698000B6915434FEACE02DB0045EA08054FEAED
:1046A8004E1E02F480521BB20EF4005E2A43784D6F
:1046B80042EA0E0203F4804E1D40C6F3001342EA9C
:1046C8000E022A43B5101A4305F0020573112A4356
:1046D800F51003F4807E761042EA0C0205F40075AA
:1046E80006F48066DFF8ACC142EA0703DCF8102064
:1046F80043EA0E032B4333439BB2DCF81050246982
:10470800006905F0300C62110E69C0F3C031E41184
:1047180002F00202AF1141EA0C0104F00404A810EF
:1047280007F008070A4300F040012243340442EA34
:10473800070242EA010248BF62F07F02D00752D462
:1047480054495048504A09690069126901F0300417
:104758004511C2F3C032C01105F00205224300F032
:1047680004008C112A43891004F00804474D0243C1
:1047780001F0400128692243060442EA010248BFC9
:1047880062F07F02D1B2444A404C10692269C611D6
:104798005700C2F3400206F00406451107F002076D
:1047A80005F008053A433243C6102A4306F01006BE
:1047B80045103243344E05F0200540002A43356940
:1047C80000F04000AD0642EA000231D489072DD43A
:1047D800B3F55E4F2AD102F03F023049304B51F811
:1047E80022201A6022E02B492648274A09690069D5
:1047F800126901F030044511C2F3C032C01105F04E
:104808000205224300F004008C112A43891004F0A9
:1048180008041E4D024301F04001286922430A435F
:10482800010448BF62F07F0252060DD5BDE8F08151
:104838008807FBD4B3F55E4FF8D14FF480024FF4EC
:10484800C073A261A361F1E7154AC3F30C031268B0
:10485800D05CFBF747FD0A4A1369DF06FCD50B4C11
:104868000D4822680F4B22F00F02074922600268A8
:10487800134003600B6823F440630B60D6E700BF66
:104888000000014000080258000C025800100258AD
:104898000080FFFF000002580004025848B80000DA
:1048A80054000010FF03F0FF2DE9F84FAB4B1B69D4
:1048B800180740F1BB81AA4B4FF40012A94DAA4C2E
:1048C800AA4E9A612F692169A5484FEAE7190FFA9C
:1048D80081FEA74B026909F020094FEA8E0C0EF001
:1048E80004084FEA0E1B0CF0080C4FEA4E0A0BF0B6
:1048F800100B3F110AF4006A4CEA0B0C07F0400752
:104908004CEA080C4FEACE084FEA4E1E4CEA0A0C55
:1049180008F4805A4FEAC2080EF4005E4CEA0A0214
:10492800C1F3001C0FFA88F842EA0E024FEAA10A06
:1049380008F4804E08EA03030AF0020A4FEA6118F5
:1049480042EA0E0208F480781A43CB10491042EA72
:104958000C02DFF82CC203F4007E01F4806142EA05
:104968000A02DCF8103042EA09033B4343EA080331
:1049780043EA0E030B439FB2DCF81020D5F810C0B1
:10498800216902F0300E4FEA6C190069C1F3C03199
:104998004FEAEC1C09F002094FEAA21841EA0E019D
:1049A8000CF0040E4FEAA20C08F0080841EA0902CC
:1049B8000CF0400142EA0E0242EA08020A430104EE
:1049C80048BF62F07F025FFA82F808F00902012A04
:1049D80000F0508218F0010000F0D68008F0C20202
:1049E800C22A00F0D9816349C7F30D025C480968FF
:1049F800614F895CDFF88CC111F0010F0CBF4FF4D7
:104A0800003E4FF0020E11F0020F0CBF4FF4803938
:104A18004FF0010911F0040F4EEA090E0CBF4FF0D8
:104A280000724FF4007211F0080FC0F818E00CBFC4
:104A38004FF080794FF4807911F0100F42EA0902A3
:104A48000CBF4FF4000E4FF0800E11F0200F42EA19
:104A58000E020CBF4FF4800E4FF0400E11F0400FC5
:104A680042EA0E020CBF4FF4001E4FF0200E11F068
:104A7800800F42EA0E020CBF4FF400112021BA61E8
:104A880018F0020FA161026802F00F0202603A6892
:104A980002EA0C023A60226802F44062226000F0E6
:104AA800AF822E4A536A932BFCD92D49324A0B68A0
:104AB80023F00F030B60136833401360236823F45B
:104AC8004063236018F0100F40F0A880234A536A0F
:104AD800532BFCD8294B516A1A4659605368112B3D
:104AE800FCD91F48264B2969226900691B69234F95
:104AF8007B68202BFCD9224B194FD3F810C0D5F86E
:104B080010E023690CF030084FEA6E193F69C3F3CF
:104B1800C0334FEAEE1E09F002093F0443EA0803D6
:104B28000EF0040E4FEAAC1843EA09034FEAAC0C46
:104B380008F0080843EA0E030CF0400C43EA0803A7
:104B480043EA0C0348BF63F07F0303F0C003C02BA4
:104B58006ED10A4A5368602BFCD9B3E600000140C5
:104B68000010025800080258000C0258FF03F0FF1A
:104B78000080FFFF5400001000040258001000E0FD
:104B88000000025800FC0F00B1490A782AB101322E
:104B9800D2B2042A0A7000F08582AE49AE4A096989
:104BA80012694FEAE11C4FEA420EC2F340020CF0D0
:104BB800040C48110EF0020E00F0080042EA0E0242
:104BC80042EA0C024FEAE10C02430CF0100C4810C8
:104BD80042EA0C02490000F02000D4F810C001F0AD
:104BE800400102431CF0200F42EA010218BF62F0A4
:104BF8007F0218F0020F00F0288218F0040F7FF4EB
:104C080061AF4FF4804307F07F07944818F0100F06
:104C18009149C2558B61A3613FF458AF904B6FF037
:104C28000801DA680A40DA6019611961BDE8F88F8D
:104C38000FFA82FC8B4BC2F300170CF004084FEA02
:104C48004C1E03EAC0004FEA0C1940EA08034FEA79
:104C5800CC080EF400504FEA4C0E08F480584FEA86
:104C68008C0C18430EF4006309F010090CF0080EC0
:104C780040EA08004FEAA208184308F00208CB11DE
:104C880040EA0900091103F0200C531140EA0E0014
:104C980001F040014FEAE20E384303F480770EF446
:104CA800007E521040EA0800DFF8C08102F48062FA
:104CB80040EA0C03D8F800C067480B4365493B43FA
:104CC800694F43EA0E03DFF8A8E11343C3F30D036A
:104CD8001CF8032012F0010F0CBF4FF4003C4FF0FA
:104CE800020C12F0020F0CBF4FF480384FF001088D
:104CF80012F0040F4CEA080C0CBF4FF000734FF48D
:104D0800007312F0080FC0F818C00CBF4FF080787D
:104D18004FF4807812F0100F43EA08030CBF4FF4E9
:104D2800000C4FF0800C12F0200F43EA0C030CBF6C
:104D38004FF4800C4FF0400C12F0400F43EA0C0384
:104D48000CBF4FF4001C4FF0200C12F0800F43EA08
:104D58000C030CBF4FF4001220228B61A261036880
:104D680003F00F0303600B681F400F60236803F410
:104D780040632360DEF804303C2BFBD93649354AC2
:104D88000B6823F00F030B6013683340136023682C
:104D980023F440632360DCE618F0040F40F0B98088
:104DA8002E4B07F07F072C48DA5D2A4912F0010FD5
:104DB8002D4F0CBF4FF4003C4FF0020C12F0020FC5
:104DC8000CBF4FF4803E4FF0010E12F0040F4CEA76
:104DD8000E0C0CBF4FF000734FF4007312F0080F65
:104DE800C0F818C00CBF4FF0807E4FF4807E12F0E0
:104DF800100F43EA0E030CBF4FF4000C4FF0800C69
:104E080012F0200F43EA0C030CBF4FF4800C4FF054
:104E1800400C12F0400F43EA0C030CBF4FF4001C87
:104E28004FF0200C12F0800F43EA0C030CBF4FF434
:104E3800001220228B61A261036803F00F03036054
:104E48000B683B400B60236803F44063236028E64B
:104E5800B143001000040258001002585800001016
:104E68000000014000C0FFFF00FC0F0054000010CC
:104E7800001000E000BF00BF00BF00BF00BF00BFC0
:104E880000BFA54AA5481169D5F810C0226901F0EC
:104E9800300E4FEA6C180069C2F3C0324FEAEC1CBE
:104EA80008F00208000442EA0E020CF0040C4FEA73
:104EB800A11E42EA08024FEAA1080EF0080142EAE0
:104EC8000C0208F0400842EA010242EA080248BF20
:104ED80062F07F025FFA82F808F0C202C22A2DD17E
:104EE80018F0040F00F0D48018F0200340F010816F
:104EF8008B4A117800293FF4E5AD4FF08041DFF887
:104F08001CC288480127CCF81810A16113700770DB
:104F1800D8E518F02002824B40F0C18019780029AA
:104F28003FF4D0AD4FF08041DFF8F0C17D48012754
:104F3800CCF81810A1611A700770C3E57A49C7F355
:104F48000D0276480968794F895CDFF8F4C111F0E1
:104F5800010F0CBF4FF4003E4FF0020E11F0020F8C
:104F68000CBF4FF480394FF0010911F0040F4EEADD
:104F7800090E0CBF4FF000724FF4007211F0080FC9
:104F8800C0F818E00CBF4FF080794FF4807911F029
:104F9800100F42EA09020CBF4FF4000E4FF0800ECA
:104FA80011F0200F42EA0E020CBF4FF4800E4FF0B2
:104FB800400E11F0400F42EA0E020CBF4FF4001EE3
:104FC8004FF0200E11F0800F42EA0E020CBF4FF492
:104FD80000112021BA6118F0020FA161026802F0E5
:104FE8000F0202603A6802EA0C023A60226802F490
:104FF8004062226067D04E4A536A932BFCD954E52D
:1050080003F002024B4B4C4942F0010252B253F8F2
:1050180022300A70DF0601D540228261980603D546
:105028003E4A4FF480019161DA013C489F0599019D
:10503800D2B207F400075B0501F480713A4303F02C
:1050480080730A43134383612BE503F00203394A53
:10505800394952F823200B70D10602D52F4B402135
:105068009961930603D52D4B4FF480019961D301C3
:105078002A4897059101DBB207F40007520501F4AD
:1050880080713B4302F080720B431A43826119E539
:1050980007F07F07294BD85DFBF724F9ABE701221E
:1050A8001A700FE5DFF890C04FF002091B4A4FF065
:1050B800400E8CF80090DFF88CC0C2F818E0C2F8F7
:1050C80018C0087069E503F002021A4B1A4942F049
:1050D800010252B253F822300A70D90601D5402293
:1050E80082619A0603D50D4A4FF480019161DA0175
:1050F8000A489F059901D2B207F400075B0501F43D
:1051080080713A4303F080730A431343836172E763
:10511800034B01221A70D5E400000258001002580F
:10512800B0430010B14300105400001000040258AE
:105138000000014050BC0000EC4500105800001071
:1051480000FC0F0000018000B24B1A69120700D45E
:1051580070472DE9F0416FF01802AF4CAF481A6163
:1051680027690669FA11AE490FFA86FE02F0200C8B
:105178003F114FEA8E050EF004024FEA0E1307F0B6
:10518800400705F008054FEA4E0803F0100308F43D
:1051980000681D430B6915434FEACE02DB0045EA60
:1051A80008054FEA4E1E02F480521BB20EF4005E50
:1051B8002A439C4D42EA0E0203F4804E1D40C6F37A
:1051C800001342EA0E022A43B5101A4305F00205FD
:1051D80073112A43F51003F4807E761042EA0C021C
:1051E80005F4007506F48066DFF83CC242EA07035E
:1051F800DCF8102043EA0E032B4333439BB2DCF860
:1052080010502469006905F0300C62110E69C0F372
:10521800C031E41102F00202AF1141EA0C0104F0BE
:105228000404A81007F008070A4300F040012243CD
:10523800340442EA070242EA010248BF62F07F02F0
:10524800D00738D578497448744A096900691269E1
:1052580001F030044511C2F3C032C01105F0020557
:10526800224300F004008C112A43891004F008043A
:105278006B4D024301F04001286922430A430104AF
:1052880048BF62F07F02D2B202F0C001C02974D1D7
:1052980012F002047CD14DF60962934200F0868038
:1052A8004DF60A6293425FD1604B1878FBF71AF803
:1052B8005F4B1C7068E05C4A57485849126900699E
:1052C800096902F030044511C1F3C031C01105F07D
:1052D8000205214300F0040094112943921004F0C0
:1052E80008044F4D014302F0400228692143060497
:1052F80041EA020148BF61F07F01C9B24D48484AFE
:1053080000691269C5115600C2F3400205F0040590
:10531800441106F0020604F0080432432A43C5107B
:10532800224305F0100544102A43400004F02004ED
:105338003A4D00F0400022432C690243A50648BFBD
:1053480062F07F0211F00200D2B20FD103F07F03A6
:10535800022B33D00A2B24D033B902F03F0236494E
:10536800364B51F822201A60BDE8F0814907FBD47A
:1053780003F07F033249CA54F6E7304AC3F30D03FA
:105388001268D05CFAF7AEFFBDE8F041FCF7F2BB5B
:105398005707E9D403F07F03294AD05CFAF7A2FF44
:1053A800F2E72849284B0A701870DDE7204A264B97
:1053B80010781B781843FAF795FFE5E7530902F0D0
:1053C8000204C2F38001214803F0040321EA020128
:1053D80043EA04020A4350F82230DC0602D5104A98
:1053E80040219161980603D50D4A4FF480019161DF
:1053F800DA010B4C98059901D2B200F400005B0564
:1054080001F48071024303F080730A431343A361DC
:10541800AAE700BF0000014000080258000C02582B
:10542800001002580080FFFF00000258A843001037
:10543800A94300100004025848B8000054000010A6
:1054480058000010AA430010080000109CBA000081
:10545800724B1A69120700D470472DE9F0416FF0BA
:1054680018026F4C6F481A6127690669FA116E496C
:105478000FFA86FE02F0200C3F114FEA8E050EF05F
:1054880004024FEA0E1307F0400705F008054FEA3B
:105498004E0803F0100308F400681D430B69154318
:1054A8004FEACE02DB0045EA08054FEA4E1E02F439
:1054B80080521BB20EF4005E2A435C4D42EA0E0293
:1054C80003F4804E1D40C6F3001342EA0E022A433D
:1054D800B5101A4305F0020573112A43F51003F4B9
:1054E800807E761042EA0C0205F4007506F48066A8
:1054F800DFF83CC142EA0703DCF8102043EA0E0358
:105508002B4333439BB2DCF810502469006905F043
:1055180030070E696211C0F3C031E41102F00202D3
:10552800A811394304F0040400F00800AD100A4340
:10553800370405F0400542EA040242EA000242EA62
:10554800050248BF62F07F02D6072AD53849344899
:10555800344A09690069126901F030044511C2F33F
:10556800C032C01105F00205224300F004008C117E
:105578002A43891004F008042B4D024301F040012E
:1055880028692243050442EA010248BF62F07F020B
:10559800D2B2540637D5900733D4264B264A1A6020
:1055A8002FE023491E481F4A09690069126901F062
:1055B80030044511C2F3C032C01105F00205224380
:1055C80000F004008C112A43891004F00804164DD9
:1055D800024301F04001286922430A43010448BFFD
:1055E80062F07F02154C92070F480E492469006942
:1055F800096906D403F03F0311490E4A51F82330D4
:105608001360BDE8F0810B4AC3F30C031268D05C49
:10561800FAF768FEBDE8F041FCF7ACBA00000140BB
:1056280000080258000C0258001002580080FFFFC2
:10563800000002585400001000C000200004025866
:1056480048B80000B94B1B691B0740F10282B84BF0
:105658004FF40012DFF8F0C22DE9F04FDFF8ECA2AA
:105668001F46DFF8EC82DFF8ECE29A61D8F81040C8
:10567800DCF810003D6903B2DEF81020ED00990057
:1056880003F004091A0101F008015E0002F010029B
:105698002DB206F400661143DA005B0141EA090104
:1056A80002F4805203F40053314305F4804625F494
:1056B800FF450A43C0F3001125F07F051A43831004
:1056C80032432A4303F00205E3110A43241103F08D
:1056D800200341112A4304F04004C51001F48071ED
:1056E8001343401005F40072234300F480600B4319
:1056F800134303439BB2DEF81010D8F81000DCF80F
:10570800102001F030054411C2F3C032C01104F07A
:1057180002042A4300F004008D112243891005F089
:1057280008053C69024301F04001200442EA0502F1
:1057380042EA010248BF62F07F02D2B202F00901D8
:10574800012900F0098112F001006CD1794909782A
:1057580031B10131774CC9B20429217000F07D8143
:10576800DAF800407449096938694FEAE119DCF848
:1057780010504FEA400BC0F3400009F004094E11E5
:105788000BF0020BAD0606F0080640EA0B0040EAF3
:1057980009004FEAE10940EA060009F010094FEA5A
:1057A800610640EA09004FEA410106F0200601F0CF
:1057B800400140EA060041EA000148BF61F07F016C
:1057C80064B19007C9B240F10B81500606D45B481A
:1057D8000068844202D0C3F30C03E154D20600F1FE
:1057E8009B80524A536A532BFCD8554B516A1A4630
:1057F80059605368112BFCD9D8F81030DCF81030F8
:105808003B69DEF810304E4A5368202BFCD9DEF88D
:1058180010304B4AD8F81030DCF810303B69536828
:10582800602BFCD922E7DAF80010002900F0C680C6
:10583800500640F1258102F08201822900F0BE80E5
:105848003E49C3F30D033C480968C95C3D4C11F05F
:10585800010F0CBF4FF40035022511F0020F0CBFE9
:105868004FF48036012611F0040F45EA06050CBFF7
:105878004FF000734FF4007311F0080FBD610CBFB7
:105888004FF080764FF4807611F0100F43EA06034C
:105898000CBF4FF40005802511F0200F43EA0503E3
:1058A8000CBF4FF48005402511F0400F43EA050373
:1058B8000CBF4FF40015202511F0800F43EA0503B3
:1058C8000CBF4FF4001120218361CCF818103B68FD
:1058D800164903F00F033B60036823400360DCF8BC
:1058E800003003F44063CCF800304B6A932BFCD9AA
:1058F8003B68D206104923F00F033B600B6823F482
:105908007F2323F440630B60DCF8003023F440630A
:10591800CCF800307FF565AF044B6FF00801DA680A
:105928000A40DA6019611961BDE8F08F0000014092
:1059380000100258B14300100004025858400010EB
:10594800001000E000FC0F00000C0258540000108A
:10595800000802580000025800BF00BF00BF00BF87
:1059680000BF00BF00BFDEF81010D8F81000DCF848
:10597800102001F030054411C2F3C032C01104F008
:1059880002042A4300F004008D112243891005F017
:1059980008053C69024301F040012A430A432104F7
:1059A800DAF8001048BF62F07F02D2B231B1540673
:1059B80040F1C38002F08201822965D112F02001F2
:1059C800634B47D1187800283FF408AF4FF0804068
:1059D8000124B861CCF8180019705E4B1C70FDE604
:1059E800CC08C1F380054B0801F0030104F0020460
:1059F800594803F00403594E2C431943584B50F8A7
:105A0800245053F821003560C30601D54023BB61FB
:105A1800C1018605C9B206F400068301314303F4C7
:105A2800807346050B4306F08071860643EA01033E
:105A380020D54FF480040021BC61BB61CAF8001076
:105A4800C4077FF5CBAE4FF48043BB61CCF8183068
:105A5800C4E6704701211970C0E6424D40263F490F
:105A6800BE61BD613B4D404C28704048CAF80040BB
:105A7800086077E6BB61C30163D5CAF80050DFE769
:105A8800C3F30D033A48E0E63449C3F30D0338483D
:105A98000968C95C374C11F0010F0CBF4FF4003591
:105AA800022511F0020F0CBF4FF48036012611F0C9
:105AB800040F45EA06050CBF4FF000734FF400735E
:105AC80011F0080FBD610CBF4FF080764FF480765F
